{
  "_format": "hh-sol-artifact-1",
  "contractName": "Booking",
  "sourceName": "contracts/Booking.sol",
  "abi": [
    {
      "inputs": [
        {
          "internalType": "address",
          "name": "_dxlToken",
          "type": "address"
        }
      ],
      "stateMutability": "nonpayable",
      "type": "constructor"
    },
    {
      "anonymous": false,
      "inputs": [
        {
          "indexed": true,
          "internalType": "bytes32",
          "name": "bookingId",
          "type": "bytes32"
        },
        {
          "indexed": false,
          "internalType": "string",
          "name": "roomId",
          "type": "string"
        },
        {
          "indexed": false,
          "internalType": "string",
          "name": "roomName",
          "type": "string"
        },
        {
          "indexed": false,
          "internalType": "string",
          "name": "areaId",
          "type": "string"
        },
        {
          "indexed": false,
          "internalType": "string",
          "name": "areaName",
          "type": "string"
        },
        {
          "indexed": false,
          "internalType": "string",
          "name": "position",
          "type": "string"
        },
        {
          "indexed": false,
          "internalType": "uint256",
          "name": "refundAmount",
          "type": "uint256"
        }
      ],
      "name": "BookingCancelled",
      "type": "event"
    },
    {
      "anonymous": false,
      "inputs": [
        {
          "indexed": true,
          "internalType": "bytes32",
          "name": "bookingId",
          "type": "bytes32"
        }
      ],
      "name": "BookingCheckedIn",
      "type": "event"
    },
    {
      "anonymous": false,
      "inputs": [
        {
          "indexed": true,
          "internalType": "bytes32",
          "name": "bookingId",
          "type": "bytes32"
        }
      ],
      "name": "BookingCheckedOut",
      "type": "event"
    },
    {
      "anonymous": false,
      "inputs": [
        {
          "indexed": true,
          "internalType": "bytes32",
          "name": "bookingId",
          "type": "bytes32"
        },
        {
          "indexed": false,
          "internalType": "string",
          "name": "roomId",
          "type": "string"
        },
        {
          "indexed": false,
          "internalType": "string",
          "name": "roomName",
          "type": "string"
        },
        {
          "indexed": false,
          "internalType": "string",
          "name": "areaId",
          "type": "string"
        },
        {
          "indexed": false,
          "internalType": "string",
          "name": "areaName",
          "type": "string"
        },
        {
          "indexed": false,
          "internalType": "string",
          "name": "position",
          "type": "string"
        },
        {
          "indexed": false,
          "internalType": "uint8",
          "name": "slot",
          "type": "uint8"
        },
        {
          "indexed": true,
          "internalType": "address",
          "name": "user",
          "type": "address"
        },
        {
          "indexed": false,
          "internalType": "uint256",
          "name": "time",
          "type": "uint256"
        }
      ],
      "name": "BookingCreated",
      "type": "event"
    },
    {
      "anonymous": false,
      "inputs": [
        {
          "indexed": true,
          "internalType": "address",
          "name": "previousOwner",
          "type": "address"
        },
        {
          "indexed": true,
          "internalType": "address",
          "name": "newOwner",
          "type": "address"
        }
      ],
      "name": "OwnershipTransferred",
      "type": "event"
    },
    {
      "anonymous": false,
      "inputs": [
        {
          "indexed": true,
          "internalType": "address",
          "name": "user",
          "type": "address"
        },
        {
          "indexed": false,
          "internalType": "uint256",
          "name": "amount",
          "type": "uint256"
        }
      ],
      "name": "TokensDeposited",
      "type": "event"
    },
    {
      "anonymous": false,
      "inputs": [
        {
          "indexed": true,
          "internalType": "address",
          "name": "user",
          "type": "address"
        },
        {
          "indexed": false,
          "internalType": "uint256",
          "name": "amount",
          "type": "uint256"
        }
      ],
      "name": "TokensWithdrawn",
      "type": "event"
    },
    {
      "anonymous": false,
      "inputs": [
        {
          "indexed": true,
          "internalType": "address",
          "name": "user",
          "type": "address"
        }
      ],
      "name": "UserBlocked",
      "type": "event"
    },
    {
      "anonymous": false,
      "inputs": [
        {
          "indexed": true,
          "internalType": "address",
          "name": "user",
          "type": "address"
        },
        {
          "indexed": false,
          "internalType": "string",
          "name": "email",
          "type": "string"
        },
        {
          "indexed": false,
          "internalType": "bool",
          "name": "isStaff",
          "type": "bool"
        }
      ],
      "name": "UserRegistered",
      "type": "event"
    },
    {
      "anonymous": false,
      "inputs": [
        {
          "indexed": true,
          "internalType": "address",
          "name": "user",
          "type": "address"
        }
      ],
      "name": "UserUnblocked",
      "type": "event"
    },
    {
      "inputs": [],
      "name": "CHECK_IN",
      "outputs": [
        {
          "internalType": "uint256",
          "name": "",
          "type": "uint256"
        }
      ],
      "stateMutability": "view",
      "type": "function"
    },
    {
      "inputs": [],
      "name": "MAX_SLOTS",
      "outputs": [
        {
          "internalType": "uint256",
          "name": "",
          "type": "uint256"
        }
      ],
      "stateMutability": "view",
      "type": "function"
    },
    {
      "inputs": [],
      "name": "PENALTY_AMOUNT",
      "outputs": [
        {
          "internalType": "uint256",
          "name": "",
          "type": "uint256"
        }
      ],
      "stateMutability": "view",
      "type": "function"
    },
    {
      "inputs": [],
      "name": "SLOT_PRICE",
      "outputs": [
        {
          "internalType": "uint256",
          "name": "",
          "type": "uint256"
        }
      ],
      "stateMutability": "view",
      "type": "function"
    },
    {
      "inputs": [
        {
          "internalType": "string",
          "name": "roomId",
          "type": "string"
        },
        {
          "internalType": "string",
          "name": "roomName",
          "type": "string"
        },
        {
          "internalType": "string",
          "name": "areaId",
          "type": "string"
        },
        {
          "internalType": "string",
          "name": "areaName",
          "type": "string"
        },
        {
          "internalType": "string",
          "name": "position",
          "type": "string"
        },
        {
          "internalType": "uint8",
          "name": "slot",
          "type": "uint8"
        },
        {
          "internalType": "uint256",
          "name": "time",
          "type": "uint256"
        }
      ],
      "name": "book",
      "outputs": [],
      "stateMutability": "nonpayable",
      "type": "function"
    },
    {
      "inputs": [
        {
          "internalType": "bytes32",
          "name": "",
          "type": "bytes32"
        }
      ],
      "name": "bookings",
      "outputs": [
        {
          "internalType": "string",
          "name": "roomId",
          "type": "string"
        },
        {
          "internalType": "string",
          "name": "roomName",
          "type": "string"
        },
        {
          "internalType": "string",
          "name": "areaId",
          "type": "string"
        },
        {
          "internalType": "string",
          "name": "areaName",
          "type": "string"
        },
        {
          "internalType": "string",
          "name": "position",
          "type": "string"
        },
        {
          "internalType": "uint8",
          "name": "slot",
          "type": "uint8"
        },
        {
          "internalType": "address",
          "name": "user",
          "type": "address"
        },
        {
          "internalType": "uint256",
          "name": "price",
          "type": "uint256"
        },
        {
          "internalType": "uint256",
          "name": "time",
          "type": "uint256"
        },
        {
          "internalType": "bool",
          "name": "checkedIn",
          "type": "bool"
        },
        {
          "internalType": "bool",
          "name": "checkedOut",
          "type": "bool"
        },
        {
          "internalType": "bool",
          "name": "cancelled",
          "type": "bool"
        }
      ],
      "stateMutability": "view",
      "type": "function"
    },
    {
      "inputs": [
        {
          "internalType": "bytes32",
          "name": "bookingId",
          "type": "bytes32"
        }
      ],
      "name": "cancelBooking",
      "outputs": [],
      "stateMutability": "nonpayable",
      "type": "function"
    },
    {
      "inputs": [
        {
          "internalType": "bytes32",
          "name": "bookingId",
          "type": "bytes32"
        }
      ],
      "name": "checkIn",
      "outputs": [],
      "stateMutability": "nonpayable",
      "type": "function"
    },
    {
      "inputs": [
        {
          "internalType": "bytes32",
          "name": "bookingId",
          "type": "bytes32"
        }
      ],
      "name": "checkOut",
      "outputs": [],
      "stateMutability": "nonpayable",
      "type": "function"
    },
    {
      "inputs": [
        {
          "internalType": "uint256",
          "name": "amount",
          "type": "uint256"
        }
      ],
      "name": "depositTokens",
      "outputs": [],
      "stateMutability": "nonpayable",
      "type": "function"
    },
    {
      "inputs": [],
      "name": "dxlToken",
      "outputs": [
        {
          "internalType": "contract DXLABCoin",
          "name": "",
          "type": "address"
        }
      ],
      "stateMutability": "view",
      "type": "function"
    },
    {
      "inputs": [
        {
          "internalType": "string",
          "name": "roomId",
          "type": "string"
        },
        {
          "internalType": "string",
          "name": "roomName",
          "type": "string"
        },
        {
          "internalType": "string",
          "name": "areaId",
          "type": "string"
        },
        {
          "internalType": "string",
          "name": "areaName",
          "type": "string"
        },
        {
          "internalType": "string",
          "name": "position",
          "type": "string"
        },
        {
          "internalType": "uint8",
          "name": "slot",
          "type": "uint8"
        },
        {
          "internalType": "uint256",
          "name": "time",
          "type": "uint256"
        }
      ],
      "name": "generateBookingId",
      "outputs": [
        {
          "internalType": "bytes32",
          "name": "",
          "type": "bytes32"
        }
      ],
      "stateMutability": "pure",
      "type": "function"
    },
    {
      "inputs": [],
      "name": "owner",
      "outputs": [
        {
          "internalType": "address",
          "name": "",
          "type": "address"
        }
      ],
      "stateMutability": "view",
      "type": "function"
    },
    {
      "inputs": [],
      "name": "reactivateAccount",
      "outputs": [],
      "stateMutability": "nonpayable",
      "type": "function"
    },
    {
      "inputs": [
        {
          "internalType": "address",
          "name": "userAddress",
          "type": "address"
        },
        {
          "internalType": "string",
          "name": "email",
          "type": "string"
        },
        {
          "internalType": "bool",
          "name": "isStaff",
          "type": "bool"
        }
      ],
      "name": "registerUser",
      "outputs": [],
      "stateMutability": "nonpayable",
      "type": "function"
    },
    {
      "inputs": [],
      "name": "renounceOwnership",
      "outputs": [],
      "stateMutability": "nonpayable",
      "type": "function"
    },
    {
      "inputs": [
        {
          "internalType": "bytes32",
          "name": "",
          "type": "bytes32"
        }
      ],
      "name": "roomSlotBooked",
      "outputs": [
        {
          "internalType": "bool",
          "name": "",
          "type": "bool"
        }
      ],
      "stateMutability": "view",
      "type": "function"
    },
    {
      "inputs": [
        {
          "internalType": "address",
          "name": "newOwner",
          "type": "address"
        }
      ],
      "name": "transferOwnership",
      "outputs": [],
      "stateMutability": "nonpayable",
      "type": "function"
    },
    {
      "inputs": [
        {
          "internalType": "address",
          "name": "",
          "type": "address"
        }
      ],
      "name": "users",
      "outputs": [
        {
          "internalType": "bool",
          "name": "isRegistered",
          "type": "bool"
        },
        {
          "internalType": "bool",
          "name": "isStaff",
          "type": "bool"
        },
        {
          "internalType": "uint256",
          "name": "consecutiveCancellations",
          "type": "uint256"
        },
        {
          "internalType": "uint256",
          "name": "blockEndTime",
          "type": "uint256"
        },
        {
          "internalType": "string",
          "name": "email",
          "type": "string"
        }
      ],
      "stateMutability": "view",
      "type": "function"
    },
    {
      "inputs": [
        {
          "internalType": "uint256",
          "name": "amount",
          "type": "uint256"
        }
      ],
      "name": "withdrawTokens",
      "outputs": [],
      "stateMutability": "nonpayable",
      "type": "function"
    }
  ],
  "bytecode": "0x60806040523480156200001157600080fd5b50604051620047b0380380620047b08339818101604052810190620000379190620001dc565b620000576200004b620000a660201b60201c565b620000ae60201b60201c565b6001808190555080600260006101000a81548173ffffffffffffffffffffffffffffffffffffffff021916908373ffffffffffffffffffffffffffffffffffffffff160217905550506200020e565b600033905090565b60008060009054906101000a900473ffffffffffffffffffffffffffffffffffffffff169050816000806101000a81548173ffffffffffffffffffffffffffffffffffffffff021916908373ffffffffffffffffffffffffffffffffffffffff1602179055508173ffffffffffffffffffffffffffffffffffffffff168173ffffffffffffffffffffffffffffffffffffffff167f8be0079c531659141344cd1fd0a4f28419497f9722a3daafe3b4186f6b6457e060405160405180910390a35050565b600080fd5b600073ffffffffffffffffffffffffffffffffffffffff82169050919050565b6000620001a48262000177565b9050919050565b620001b68162000197565b8114620001c257600080fd5b50565b600081519050620001d681620001ab565b92915050565b600060208284031215620001f557620001f462000172565b5b60006200020584828501620001c5565b91505092915050565b614592806200021e6000396000f3fe608060405234801561001057600080fd5b506004361061012c5760003560e01c8063715018a6116100ad578063b8ac250211610071578063b8ac2502146102e7578063bbacc18714610317578063c0f3f2e914610352578063dd49756e14610370578063f2fde38b1461038c5761012c565b8063715018a61461023f5780637dd6e44b146102495780638da5cb5b146102655780639cf8119514610283578063a87430ba146102b35761012c565b80633a04d699116100f45780633a04d699146101bf5780633ffd65cc146101dd5780634662d1dd146101fb5780635bbf11b2146102175780635cec72a4146102215761012c565b806308122cc7146101315780630ac1618b1461014d578063117b04b01461016957806316596d7f14610187578063315a095d146101a3575b600080fd5b61014b60048036038101906101469190612a95565b6103a8565b005b61016760048036038101906101629190612a95565b610944565b005b610171611062565b60405161017e9190612adb565b60405180910390f35b6101a1600480360381019061019c9190612cd2565b611068565b005b6101bd60048036038101906101b89190612d6d565b6112f3565b005b6101c7611505565b6040516101d49190612df9565b60405180910390f35b6101e561152b565b6040516101f29190612adb565b60405180910390f35b61021560048036038101906102109190612a95565b611537565b005b61021f6117fd565b005b610229611abe565b6040516102369190612adb565b60405180910390f35b610247611aca565b005b610263600480360381019061025e9190612e4d565b611ade565b005b61026d61214e565b60405161027a9190612f8a565b60405180910390f35b61029d60048036038101906102989190612e4d565b612177565b6040516102aa9190612fb4565b60405180910390f35b6102cd60048036038101906102c89190612fcf565b6121b9565b6040516102de95949392919061308a565b60405180910390f35b61030160048036038101906102fc9190612a95565b612291565b60405161030e91906130e4565b60405180910390f35b610331600480360381019061032c9190612a95565b6122b1565b6040516103499c9b9a9998979695949392919061310e565b60405180910390f35b61035a61260d565b6040516103679190612adb565b60405180910390f35b61038a60048036038101906103859190612d6d565b612612565b005b6103a660048036038101906103a19190612fcf565b612826565b005b600360003373ffffffffffffffffffffffffffffffffffffffff1673ffffffffffffffffffffffffffffffffffffffff16815260200190815260200160002060000160009054906101000a900460ff16610437576040517f08c379a000000000000000000000000000000000000000000000000000000000815260040161042e90613237565b60405180910390fd5b61043f6128a9565b60006004600083815260200190815260200160002090503373ffffffffffffffffffffffffffffffffffffffff168160050160019054906101000a900473ffffffffffffffffffffffffffffffffffffffff1673ffffffffffffffffffffffffffffffffffffffff16146104e8576040517f08c379a00000000000000000000000000000000000000000000000000000000081526004016104df906132a3565b60405180910390fd5b8060080160009054906101000a900460ff16610539576040517f08c379a00000000000000000000000000000000000000000000000000000000081526004016105309061330f565b60405180910390fd5b8060080160029054906101000a900460ff161561058b576040517f08c379a00000000000000000000000000000000000000000000000000000000081526004016105829061337b565b60405180910390fd5b8060080160019054906101000a900460ff16156105dd576040517f08c379a00000000000000000000000000000000000000000000000000000000081526004016105d4906133e7565b60405180910390fd5b60018160080160016101000a81548160ff02191690831515021790555060006108dc82600001805461060e90613436565b80601f016020809104026020016040519081016040528092919081815260200182805461063a90613436565b80156106875780601f1061065c57610100808354040283529160200191610687565b820191906000526020600020905b81548152906001019060200180831161066a57829003601f168201915b505050505083600101805461069b90613436565b80601f01602080910402602001604051908101604052809291908181526020018280546106c790613436565b80156107145780601f106106e957610100808354040283529160200191610714565b820191906000526020600020905b8154815290600101906020018083116106f757829003601f168201915b505050505084600201805461072890613436565b80601f016020809104026020016040519081016040528092919081815260200182805461075490613436565b80156107a15780601f10610776576101008083540402835291602001916107a1565b820191906000526020600020905b81548152906001019060200180831161078457829003601f168201915b50505050508560030180546107b590613436565b80601f01602080910402602001604051908101604052809291908181526020018280546107e190613436565b801561082e5780601f106108035761010080835404028352916020019161082e565b820191906000526020600020905b81548152906001019060200180831161081157829003601f168201915b505050505086600401805461084290613436565b80601f016020809104026020016040519081016040528092919081815260200182805461086e90613436565b80156108bb5780601f10610890576101008083540402835291602001916108bb565b820191906000526020600020905b81548152906001019060200180831161089e57829003601f168201915b50505050508760050160009054906101000a900460ff168860070154612177565b905060006005600083815260200190815260200160002060006101000a81548160ff021916908315150217905550827fd87006e56ee0cf321c10d8ce648e475bfce9e38cb0504706b2b11497db6f9c2960405160405180910390a250506109416128f8565b50565b61094c6128a9565b60006004600083815260200190815260200160002090503373ffffffffffffffffffffffffffffffffffffffff168160050160019054906101000a900473ffffffffffffffffffffffffffffffffffffffff1673ffffffffffffffffffffffffffffffffffffffff16146109f5576040517f08c379a00000000000000000000000000000000000000000000000000000000081526004016109ec906132a3565b60405180910390fd5b8060080160029054906101000a900460ff1615610a47576040517f08c379a0000000000000000000000000000000000000000000000000000000008152600401610a3e906134b3565b60405180910390fd5b8060080160009054906101000a900460ff1615610a99576040517f08c379a0000000000000000000000000000000000000000000000000000000008152600401610a909061351f565b60405180910390fd5b42816007015411610adf576040517f08c379a0000000000000000000000000000000000000000000000000000000008152600401610ad69061358b565b60405180910390fd5b600080428360070154610af291906135da565b9050610e108110610b095782600601549150610b27565b6107088110610b265760028360060154610b23919061363d565b91505b5b60018360080160026101000a81548160ff0219169083151502179055506000610e26846000018054610b5890613436565b80601f0160208091040260200160405190810160405280929190818152602001828054610b8490613436565b8015610bd15780601f10610ba657610100808354040283529160200191610bd1565b820191906000526020600020905b815481529060010190602001808311610bb457829003601f168201915b5050505050856001018054610be590613436565b80601f0160208091040260200160405190810160405280929190818152602001828054610c1190613436565b8015610c5e5780601f10610c3357610100808354040283529160200191610c5e565b820191906000526020600020905b815481529060010190602001808311610c4157829003601f168201915b5050505050866002018054610c7290613436565b80601f0160208091040260200160405190810160405280929190818152602001828054610c9e90613436565b8015610ceb5780601f10610cc057610100808354040283529160200191610ceb565b820191906000526020600020905b815481529060010190602001808311610cce57829003601f168201915b5050505050876003018054610cff90613436565b80601f0160208091040260200160405190810160405280929190818152602001828054610d2b90613436565b8015610d785780601f10610d4d57610100808354040283529160200191610d78565b820191906000526020600020905b815481529060010190602001808311610d5b57829003601f168201915b5050505050886004018054610d8c90613436565b80601f0160208091040260200160405190810160405280929190818152602001828054610db890613436565b8015610e055780601f10610dda57610100808354040283529160200191610e05565b820191906000526020600020905b815481529060010190602001808311610de857829003601f168201915b50505050508960050160009054906101000a900460ff168a60070154612177565b905060006005600083815260200190815260200160002060006101000a81548160ff0219169083151502179055506000831115610f3d57600260009054906101000a900473ffffffffffffffffffffffffffffffffffffffff1673ffffffffffffffffffffffffffffffffffffffff1663a9059cbb33856040518363ffffffff1660e01b8152600401610eba92919061366e565b6020604051808303816000875af1158015610ed9573d6000803e3d6000fd5b505050506040513d601f19601f82011682018060405250810190610efd91906136ac565b610f3c576040517f08c379a0000000000000000000000000000000000000000000000000000000008152600401610f3390613725565b60405180910390fd5b5b6000600360003373ffffffffffffffffffffffffffffffffffffffff1673ffffffffffffffffffffffffffffffffffffffff1681526020019081526020016000209050806001016000815480929190610f9590613745565b919050555060038160010154106110015762093a8042610fb5919061378d565b81600201819055503373ffffffffffffffffffffffffffffffffffffffff167fca86d8c91ca6d00afd863578cc633a0901fad724592f89649629fe65f61410d260405160405180910390a25b857f5453700425d9e59a5ef650f5fe7ed1113137bcc6663986f72117acf00d4f6a7b866000018760010188600201896003018a6004018a60405161104a9695949392919061385a565b60405180910390a2505050505061105f6128f8565b50565b61038481565b61107061214e565b73ffffffffffffffffffffffffffffffffffffffff163373ffffffffffffffffffffffffffffffffffffffff1614806110f55750600360003373ffffffffffffffffffffffffffffffffffffffff1673ffffffffffffffffffffffffffffffffffffffff16815260200190815260200160002060000160019054906101000a900460ff165b611134576040517f08c379a000000000000000000000000000000000000000000000000000000000815260040161112b90613950565b60405180910390fd5b600360008473ffffffffffffffffffffffffffffffffffffffff1673ffffffffffffffffffffffffffffffffffffffff16815260200190815260200160002060000160009054906101000a900460ff16156111c4576040517f08c379a00000000000000000000000000000000000000000000000000000000081526004016111bb906139bc565b60405180910390fd5b6040518060a001604052806001151581526020018215158152602001600081526020016000815260200183815250600360008573ffffffffffffffffffffffffffffffffffffffff1673ffffffffffffffffffffffffffffffffffffffff16815260200190815260200160002060008201518160000160006101000a81548160ff02191690831515021790555060208201518160000160016101000a81548160ff0219169083151502179055506040820151816001015560608201518160020155608082015181600301908161129a9190613b69565b509050508273ffffffffffffffffffffffffffffffffffffffff167f0b2d2fe99b0620e0994de6f522eb19dcc5b5fd39b27be67cea0547c4ed9dbdfc83836040516112e6929190613c3b565b60405180910390a2505050565b600360003373ffffffffffffffffffffffffffffffffffffffff1673ffffffffffffffffffffffffffffffffffffffff16815260200190815260200160002060000160009054906101000a900460ff16611382576040517f08c379a000000000000000000000000000000000000000000000000000000000815260040161137990613237565b60405180910390fd5b61138a6128a9565b600081116113cd576040517f08c379a00000000000000000000000000000000000000000000000000000000081526004016113c490613cb7565b60405180910390fd5b600260009054906101000a900473ffffffffffffffffffffffffffffffffffffffff1673ffffffffffffffffffffffffffffffffffffffff1663a9059cbb33836040518363ffffffff1660e01b815260040161142a92919061366e565b6020604051808303816000875af1158015611449573d6000803e3d6000fd5b505050506040513d601f19601f8201168201806040525081019061146d91906136ac565b6114ac576040517f08c379a00000000000000000000000000000000000000000000000000000000081526004016114a390613d23565b60405180910390fd5b3373ffffffffffffffffffffffffffffffffffffffff167f6352c5382c4a4578e712449ca65e83cdb392d045dfcf1cad9615189db2da244b826040516114f29190612adb565b60405180910390a26115026128f8565b50565b600260009054906101000a900473ffffffffffffffffffffffffffffffffffffffff1681565b678ac7230489e8000081565b600360003373ffffffffffffffffffffffffffffffffffffffff1673ffffffffffffffffffffffffffffffffffffffff16815260200190815260200160002060000160009054906101000a900460ff166115c6576040517f08c379a00000000000000000000000000000000000000000000000000000000081526004016115bd90613237565b60405180910390fd5b60006004600083815260200190815260200160002090503373ffffffffffffffffffffffffffffffffffffffff168160050160019054906101000a900473ffffffffffffffffffffffffffffffffffffffff1673ffffffffffffffffffffffffffffffffffffffff161461166f576040517f08c379a0000000000000000000000000000000000000000000000000000000008152600401611666906132a3565b60405180910390fd5b8060080160029054906101000a900460ff16156116c1576040517f08c379a00000000000000000000000000000000000000000000000000000000081526004016116b890613d8f565b60405180910390fd5b8060080160009054906101000a900460ff1615611713576040517f08c379a000000000000000000000000000000000000000000000000000000000815260040161170a9061351f565b60405180910390fd5b6103848160070154611725919061378d565b421115611767576040517f08c379a000000000000000000000000000000000000000000000000000000000815260040161175e90613dfb565b60405180910390fd5b60018160080160006101000a81548160ff0219169083151502179055506000600360003373ffffffffffffffffffffffffffffffffffffffff1673ffffffffffffffffffffffffffffffffffffffff16815260200190815260200160002060010181905550817fef1dfb221c790d33cde4e3fb4e6a5cd1d475e34eb73ae116df13301fb40b016c60405160405180910390a25050565b6118056128a9565b6000600360003373ffffffffffffffffffffffffffffffffffffffff1673ffffffffffffffffffffffffffffffffffffffff16815260200190815260200160002090504281600201541161188e576040517f08c379a000000000000000000000000000000000000000000000000000000000815260040161188590613e67565b60405180910390fd5b678ac7230489e80000600260009054906101000a900473ffffffffffffffffffffffffffffffffffffffff1673ffffffffffffffffffffffffffffffffffffffff166370a08231336040518263ffffffff1660e01b81526004016118f29190612f8a565b602060405180830381865afa15801561190f573d6000803e3d6000fd5b505050506040513d601f19601f820116820180604052508101906119339190613e9c565b1015611974576040517f08c379a000000000000000000000000000000000000000000000000000000000815260040161196b90613f15565b60405180910390fd5b600260009054906101000a900473ffffffffffffffffffffffffffffffffffffffff1673ffffffffffffffffffffffffffffffffffffffff166323b872dd3330678ac7230489e800006040518463ffffffff1660e01b81526004016119db93929190613f35565b6020604051808303816000875af11580156119fa573d6000803e3d6000fd5b505050506040513d601f19601f82011682018060405250810190611a1e91906136ac565b611a5d576040517f08c379a0000000000000000000000000000000000000000000000000000000008152600401611a5490613fb8565b60405180910390fd5b428160020181905550600081600101819055503373ffffffffffffffffffffffffffffffffffffffff167f798117ec059ab8d319461ef2502b1f9d8a47cd966bfd1f3e23b6f26c30bebb7760405160405180910390a250611abc6128f8565b565b674563918244f4000081565b611ad2612901565b611adc600061297f565b565b600360003373ffffffffffffffffffffffffffffffffffffffff1673ffffffffffffffffffffffffffffffffffffffff16815260200190815260200160002060000160009054906101000a900460ff16611b6d576040517f08c379a0000000000000000000000000000000000000000000000000000000008152600401611b6490613237565b60405180910390fd5b600360003373ffffffffffffffffffffffffffffffffffffffff1673ffffffffffffffffffffffffffffffffffffffff16815260200190815260200160002060020154421015611bf2576040517f08c379a0000000000000000000000000000000000000000000000000000000008152600401611be990614024565b60405180910390fd5b611bfa6128a9565b60008260ff16118015611c11575060058260ff1611155b611c50576040517f08c379a0000000000000000000000000000000000000000000000000000000008152600401611c4790614090565b60405180910390fd5b428111611c92576040517f08c379a0000000000000000000000000000000000000000000000000000000008152600401611c89906140fc565b60405180910390fd5b6000611ca388888888888888612177565b90506005600082815260200190815260200160002060009054906101000a900460ff1615611d06576040517f08c379a0000000000000000000000000000000000000000000000000000000008152600401611cfd90614168565b60405180910390fd5b674563918244f40000600260009054906101000a900473ffffffffffffffffffffffffffffffffffffffff1673ffffffffffffffffffffffffffffffffffffffff166370a08231336040518263ffffffff1660e01b8152600401611d6a9190612f8a565b602060405180830381865afa158015611d87573d6000803e3d6000fd5b505050506040513d601f19601f82011682018060405250810190611dab9190613e9c565b1015611dec576040517f08c379a0000000000000000000000000000000000000000000000000000000008152600401611de3906141d4565b60405180910390fd5b600260009054906101000a900473ffffffffffffffffffffffffffffffffffffffff1673ffffffffffffffffffffffffffffffffffffffff166323b872dd3330674563918244f400006040518463ffffffff1660e01b8152600401611e5393929190613f35565b6020604051808303816000875af1158015611e72573d6000803e3d6000fd5b505050506040513d601f19601f82011682018060405250810190611e9691906136ac565b611ed5576040517f08c379a0000000000000000000000000000000000000000000000000000000008152600401611ecc90614240565b60405180910390fd5b6040518061018001604052808981526020018881526020018781526020018681526020018581526020018460ff1681526020013373ffffffffffffffffffffffffffffffffffffffff168152602001674563918244f40000815260200183815260200160001515815260200160001515815260200160001515815250600460008381526020019081526020016000206000820151816000019081611f799190613b69565b506020820151816001019081611f8f9190613b69565b506040820151816002019081611fa59190613b69565b506060820151816003019081611fbb9190613b69565b506080820151816004019081611fd19190613b69565b5060a08201518160050160006101000a81548160ff021916908360ff16021790555060c08201518160050160016101000a81548173ffffffffffffffffffffffffffffffffffffffff021916908373ffffffffffffffffffffffffffffffffffffffff16021790555060e0820151816006015561010082015181600701556101208201518160080160006101000a81548160ff0219169083151502179055506101408201518160080160016101000a81548160ff0219169083151502179055506101608201518160080160026101000a81548160ff02191690831515021790555090505060016005600083815260200190815260200160002060006101000a81548160ff0219169083151502179055503373ffffffffffffffffffffffffffffffffffffffff16817fc55f43a3d6e12514f6f8853aba2eb93f2ca255107e9fd0ead92b62fbf185eb778a8a8a8a8a8a8a6040516121349796959493929190614260565b60405180910390a3506121456128f8565b50505050505050565b60008060009054906101000a900473ffffffffffffffffffffffffffffffffffffffff16905090565b6000878787878787876040516020016121969796959493929190614385565b604051602081830303815290604052805190602001209050979650505050505050565b60036020528060005260406000206000915090508060000160009054906101000a900460ff16908060000160019054906101000a900460ff169080600101549080600201549080600301805461220e90613436565b80601f016020809104026020016040519081016040528092919081815260200182805461223a90613436565b80156122875780601f1061225c57610100808354040283529160200191612287565b820191906000526020600020905b81548152906001019060200180831161226a57829003601f168201915b5050505050905085565b60056020528060005260406000206000915054906101000a900460ff1681565b60046020528060005260406000206000915090508060000180546122d490613436565b80601f016020809104026020016040519081016040528092919081815260200182805461230090613436565b801561234d5780601f106123225761010080835404028352916020019161234d565b820191906000526020600020905b81548152906001019060200180831161233057829003601f168201915b50505050509080600101805461236290613436565b80601f016020809104026020016040519081016040528092919081815260200182805461238e90613436565b80156123db5780601f106123b0576101008083540402835291602001916123db565b820191906000526020600020905b8154815290600101906020018083116123be57829003601f168201915b5050505050908060020180546123f090613436565b80601f016020809104026020016040519081016040528092919081815260200182805461241c90613436565b80156124695780601f1061243e57610100808354040283529160200191612469565b820191906000526020600020905b81548152906001019060200180831161244c57829003601f168201915b50505050509080600301805461247e90613436565b80601f01602080910402602001604051908101604052809291908181526020018280546124aa90613436565b80156124f75780601f106124cc576101008083540402835291602001916124f7565b820191906000526020600020905b8154815290600101906020018083116124da57829003601f168201915b50505050509080600401805461250c90613436565b80601f016020809104026020016040519081016040528092919081815260200182805461253890613436565b80156125855780601f1061255a57610100808354040283529160200191612585565b820191906000526020600020905b81548152906001019060200180831161256857829003601f168201915b5050505050908060050160009054906101000a900460ff16908060050160019054906101000a900473ffffffffffffffffffffffffffffffffffffffff16908060060154908060070154908060080160009054906101000a900460ff16908060080160019054906101000a900460ff16908060080160029054906101000a900460ff1690508c565b600581565b600360003373ffffffffffffffffffffffffffffffffffffffff1673ffffffffffffffffffffffffffffffffffffffff16815260200190815260200160002060000160009054906101000a900460ff166126a1576040517f08c379a000000000000000000000000000000000000000000000000000000000815260040161269890613237565b60405180910390fd5b6126a96128a9565b600081116126ec576040517f08c379a00000000000000000000000000000000000000000000000000000000081526004016126e390613cb7565b60405180910390fd5b600260009054906101000a900473ffffffffffffffffffffffffffffffffffffffff1673ffffffffffffffffffffffffffffffffffffffff166323b872dd3330846040518463ffffffff1660e01b815260040161274b93929190613f35565b6020604051808303816000875af115801561276a573d6000803e3d6000fd5b505050506040513d601f19601f8201168201806040525081019061278e91906136ac565b6127cd576040517f08c379a00000000000000000000000000000000000000000000000000000000081526004016127c490613d23565b60405180910390fd5b3373ffffffffffffffffffffffffffffffffffffffff167f59062170a285eb80e8c6b8ced60428442a51910635005233fc4ce084a475845e826040516128139190612adb565b60405180910390a26128236128f8565b50565b61282e612901565b600073ffffffffffffffffffffffffffffffffffffffff168173ffffffffffffffffffffffffffffffffffffffff160361289d576040517f08c379a000000000000000000000000000000000000000000000000000000000815260040161289490614464565b60405180910390fd5b6128a68161297f565b50565b6002600154036128ee576040517f08c379a00000000000000000000000000000000000000000000000000000000081526004016128e5906144d0565b60405180910390fd5b6002600181905550565b60018081905550565b612909612a43565b73ffffffffffffffffffffffffffffffffffffffff1661292761214e565b73ffffffffffffffffffffffffffffffffffffffff161461297d576040517f08c379a00000000000000000000000000000000000000000000000000000000081526004016129749061453c565b60405180910390fd5b565b60008060009054906101000a900473ffffffffffffffffffffffffffffffffffffffff169050816000806101000a81548173ffffffffffffffffffffffffffffffffffffffff021916908373ffffffffffffffffffffffffffffffffffffffff1602179055508173ffffffffffffffffffffffffffffffffffffffff168173ffffffffffffffffffffffffffffffffffffffff167f8be0079c531659141344cd1fd0a4f28419497f9722a3daafe3b4186f6b6457e060405160405180910390a35050565b600033905090565b6000604051905090565b600080fd5b600080fd5b6000819050919050565b612a7281612a5f565b8114612a7d57600080fd5b50565b600081359050612a8f81612a69565b92915050565b600060208284031215612aab57612aaa612a55565b5b6000612ab984828501612a80565b91505092915050565b6000819050919050565b612ad581612ac2565b82525050565b6000602082019050612af06000830184612acc565b92915050565b600073ffffffffffffffffffffffffffffffffffffffff82169050919050565b6000612b2182612af6565b9050919050565b612b3181612b16565b8114612b3c57600080fd5b50565b600081359050612b4e81612b28565b92915050565b600080fd5b600080fd5b6000601f19601f8301169050919050565b7f4e487b7100000000000000000000000000000000000000000000000000000000600052604160045260246000fd5b612ba782612b5e565b810181811067ffffffffffffffff82111715612bc657612bc5612b6f565b5b80604052505050565b6000612bd9612a4b565b9050612be58282612b9e565b919050565b600067ffffffffffffffff821115612c0557612c04612b6f565b5b612c0e82612b5e565b9050602081019050919050565b82818337600083830152505050565b6000612c3d612c3884612bea565b612bcf565b905082815260208101848484011115612c5957612c58612b59565b5b612c64848285612c1b565b509392505050565b600082601f830112612c8157612c80612b54565b5b8135612c91848260208601612c2a565b91505092915050565b60008115159050919050565b612caf81612c9a565b8114612cba57600080fd5b50565b600081359050612ccc81612ca6565b92915050565b600080600060608486031215612ceb57612cea612a55565b5b6000612cf986828701612b3f565b935050602084013567ffffffffffffffff811115612d1a57612d19612a5a565b5b612d2686828701612c6c565b9250506040612d3786828701612cbd565b9150509250925092565b612d4a81612ac2565b8114612d5557600080fd5b50565b600081359050612d6781612d41565b92915050565b600060208284031215612d8357612d82612a55565b5b6000612d9184828501612d58565b91505092915050565b6000819050919050565b6000612dbf612dba612db584612af6565b612d9a565b612af6565b9050919050565b6000612dd182612da4565b9050919050565b6000612de382612dc6565b9050919050565b612df381612dd8565b82525050565b6000602082019050612e0e6000830184612dea565b92915050565b600060ff82169050919050565b612e2a81612e14565b8114612e3557600080fd5b50565b600081359050612e4781612e21565b92915050565b600080600080600080600060e0888a031215612e6c57612e6b612a55565b5b600088013567ffffffffffffffff811115612e8a57612e89612a5a565b5b612e968a828b01612c6c565b975050602088013567ffffffffffffffff811115612eb757612eb6612a5a565b5b612ec38a828b01612c6c565b965050604088013567ffffffffffffffff811115612ee457612ee3612a5a565b5b612ef08a828b01612c6c565b955050606088013567ffffffffffffffff811115612f1157612f10612a5a565b5b612f1d8a828b01612c6c565b945050608088013567ffffffffffffffff811115612f3e57612f3d612a5a565b5b612f4a8a828b01612c6c565b93505060a0612f5b8a828b01612e38565b92505060c0612f6c8a828b01612d58565b91505092959891949750929550565b612f8481612b16565b82525050565b6000602082019050612f9f6000830184612f7b565b92915050565b612fae81612a5f565b82525050565b6000602082019050612fc96000830184612fa5565b92915050565b600060208284031215612fe557612fe4612a55565b5b6000612ff384828501612b3f565b91505092915050565b61300581612c9a565b82525050565b600081519050919050565b600082825260208201905092915050565b60005b8381101561304557808201518184015260208101905061302a565b60008484015250505050565b600061305c8261300b565b6130668185613016565b9350613076818560208601613027565b61307f81612b5e565b840191505092915050565b600060a08201905061309f6000830188612ffc565b6130ac6020830187612ffc565b6130b96040830186612acc565b6130c66060830185612acc565b81810360808301526130d88184613051565b90509695505050505050565b60006020820190506130f96000830184612ffc565b92915050565b61310881612e14565b82525050565b6000610180820190508181036000830152613129818f613051565b9050818103602083015261313d818e613051565b90508181036040830152613151818d613051565b90508181036060830152613165818c613051565b90508181036080830152613179818b613051565b905061318860a083018a6130ff565b61319560c0830189612f7b565b6131a260e0830188612acc565b6131b0610100830187612acc565b6131be610120830186612ffc565b6131cc610140830185612ffc565b6131da610160830184612ffc565b9d9c50505050505050505050505050565b7f55736572206e6f74207265676973746572656400000000000000000000000000600082015250565b6000613221601383613016565b915061322c826131eb565b602082019050919050565b6000602082019050818103600083015261325081613214565b9050919050565b7f4e6f742074686520626f6f6b696e67206f776e65720000000000000000000000600082015250565b600061328d601583613016565b915061329882613257565b602082019050919050565b600060208201905081810360008301526132bc81613280565b9050919050565b7f5573657220686173206e6f7420636865636b656420696e000000000000000000600082015250565b60006132f9601783613016565b9150613304826132c3565b602082019050919050565b60006020820190508181036000830152613328816132ec565b9050919050565b7f426f6f6b696e67207761732063616e63656c6c65640000000000000000000000600082015250565b6000613365601583613016565b91506133708261332f565b602082019050919050565b6000602082019050818103600083015261339481613358565b9050919050565b7f416c726561647920636865636b6564206f757400000000000000000000000000600082015250565b60006133d1601383613016565b91506133dc8261339b565b602082019050919050565b60006020820190508181036000830152613400816133c4565b9050919050565b7f4e487b7100000000000000000000000000000000000000000000000000000000600052602260045260246000fd5b6000600282049050600182168061344e57607f821691505b60208210810361346157613460613407565b5b50919050565b7f426f6f6b696e6720616c72656164792063616e63656c6c656400000000000000600082015250565b600061349d601983613016565b91506134a882613467565b602082019050919050565b600060208201905081810360008301526134cc81613490565b9050919050565b7f416c726561647920636865636b656420696e0000000000000000000000000000600082015250565b6000613509601283613016565b9150613514826134d3565b602082019050919050565b60006020820190508181036000830152613538816134fc565b9050919050565b7f426f6f6b696e672074696d652070617373656400000000000000000000000000600082015250565b6000613575601383613016565b91506135808261353f565b602082019050919050565b600060208201905081810360008301526135a481613568565b9050919050565b7f4e487b7100000000000000000000000000000000000000000000000000000000600052601160045260246000fd5b60006135e582612ac2565b91506135f083612ac2565b9250828203905081811115613608576136076135ab565b5b92915050565b7f4e487b7100000000000000000000000000000000000000000000000000000000600052601260045260246000fd5b600061364882612ac2565b915061365383612ac2565b9250826136635761366261360e565b5b828204905092915050565b60006040820190506136836000830185612f7b565b6136906020830184612acc565b9392505050565b6000815190506136a681612ca6565b92915050565b6000602082840312156136c2576136c1612a55565b5b60006136d084828501613697565b91505092915050565b7f526566756e64206661696c656400000000000000000000000000000000000000600082015250565b600061370f600d83613016565b915061371a826136d9565b602082019050919050565b6000602082019050818103600083015261373e81613702565b9050919050565b600061375082612ac2565b91507fffffffffffffffffffffffffffffffffffffffffffffffffffffffffffffffff8203613782576137816135ab565b5b600182019050919050565b600061379882612ac2565b91506137a383612ac2565b92508282019050808211156137bb576137ba6135ab565b5b92915050565b60008190508160005260206000209050919050565b600081546137e381613436565b6137ed8186613016565b94506001821660008114613808576001811461381e57613851565b60ff198316865281151560200286019350613851565b613827856137c1565b60005b838110156138495781548189015260018201915060208101905061382a565b808801955050505b50505092915050565b600060c082019050818103600083015261387481896137d6565b9050818103602083015261388881886137d6565b9050818103604083015261389c81876137d6565b905081810360608301526138b081866137d6565b905081810360808301526138c481856137d6565b90506138d360a0830184612acc565b979650505050505050565b7f4f6e6c792073746166662063616e20706572666f726d2074686973206163746960008201527f6f6e000000000000000000000000000000000000000000000000000000000000602082015250565b600061393a602283613016565b9150613945826138de565b604082019050919050565b600060208201905081810360008301526139698161392d565b9050919050565b7f5573657220616c72656164792072656769737465726564000000000000000000600082015250565b60006139a6601783613016565b91506139b182613970565b602082019050919050565b600060208201905081810360008301526139d581613999565b9050919050565b60006020601f8301049050919050565b600082821b905092915050565b600060088302613a297fffffffffffffffffffffffffffffffffffffffffffffffffffffffffffffffff826139ec565b613a3386836139ec565b95508019841693508086168417925050509392505050565b6000613a66613a61613a5c84612ac2565b612d9a565b612ac2565b9050919050565b6000819050919050565b613a8083613a4b565b613a94613a8c82613a6d565b8484546139f9565b825550505050565b600090565b613aa9613a9c565b613ab4818484613a77565b505050565b5b81811015613ad857613acd600082613aa1565b600181019050613aba565b5050565b601f821115613b1d57613aee816137c1565b613af7846139dc565b81016020851015613b06578190505b613b1a613b12856139dc565b830182613ab9565b50505b505050565b600082821c905092915050565b6000613b4060001984600802613b22565b1980831691505092915050565b6000613b598383613b2f565b9150826002028217905092915050565b613b728261300b565b67ffffffffffffffff811115613b8b57613b8a612b6f565b5b613b958254613436565b613ba0828285613adc565b600060209050601f831160018114613bd35760008415613bc1578287015190505b613bcb8582613b4d565b865550613c33565b601f198416613be1866137c1565b60005b82811015613c0957848901518255600182019150602085019450602081019050613be4565b86831015613c265784890151613c22601f891682613b2f565b8355505b6001600288020188555050505b505050505050565b60006040820190508181036000830152613c558185613051565b9050613c646020830184612ffc565b9392505050565b7f416d6f756e74206d7573742062652067726561746572207468616e2030000000600082015250565b6000613ca1601d83613016565b9150613cac82613c6b565b602082019050919050565b60006020820190508181036000830152613cd081613c94565b9050919050565b7f5472616e73666572206661696c65640000000000000000000000000000000000600082015250565b6000613d0d600f83613016565b9150613d1882613cd7565b602082019050919050565b60006020820190508181036000830152613d3c81613d00565b9050919050565b7f426f6f6b696e672063616e63656c6c6564000000000000000000000000000000600082015250565b6000613d79601183613016565b9150613d8482613d43565b602082019050919050565b60006020820190508181036000830152613da881613d6c565b9050919050565b7f436865636b2d696e2077696e646f772070617373656400000000000000000000600082015250565b6000613de5601683613016565b9150613df082613daf565b602082019050919050565b60006020820190508181036000830152613e1481613dd8565b9050919050565b7f4163636f756e74206e6f7420626c6f636b656400000000000000000000000000600082015250565b6000613e51601383613016565b9150613e5c82613e1b565b602082019050919050565b60006020820190508181036000830152613e8081613e44565b9050919050565b600081519050613e9681612d41565b92915050565b600060208284031215613eb257613eb1612a55565b5b6000613ec084828501613e87565b91505092915050565b7f496e73756666696369656e742070656e616c747920616d6f756e740000000000600082015250565b6000613eff601b83613016565b9150613f0a82613ec9565b602082019050919050565b60006020820190508181036000830152613f2e81613ef2565b9050919050565b6000606082019050613f4a6000830186612f7b565b613f576020830185612f7b565b613f646040830184612acc565b949350505050565b7f50656e616c7479207061796d656e74206661696c656400000000000000000000600082015250565b6000613fa2601683613016565b9150613fad82613f6c565b602082019050919050565b60006020820190508181036000830152613fd181613f95565b9050919050565b7f5573657220697320626c6f636b65640000000000000000000000000000000000600082015250565b600061400e600f83613016565b915061401982613fd8565b602082019050919050565b6000602082019050818103600083015261403d81614001565b9050919050565b7f496e76616c696420736c6f74206e756d62657200000000000000000000000000600082015250565b600061407a601383613016565b915061408582614044565b602082019050919050565b600060208201905081810360008301526140a98161406d565b9050919050565b7f43616e6e6f7420626f6f6b20696e207468652070617374000000000000000000600082015250565b60006140e6601783613016565b91506140f1826140b0565b602082019050919050565b60006020820190508181036000830152614115816140d9565b9050919050565b7f536c6f7420616c726561647920626f6f6b656400000000000000000000000000600082015250565b6000614152601383613016565b915061415d8261411c565b602082019050919050565b6000602082019050818103600083015261418181614145565b9050919050565b7f496e73756666696369656e74204650542062616c616e63650000000000000000600082015250565b60006141be601883613016565b91506141c982614188565b602082019050919050565b600060208201905081810360008301526141ed816141b1565b9050919050565b7f546f6b656e207472616e73666572206661696c65640000000000000000000000600082015250565b600061422a601583613016565b9150614235826141f4565b602082019050919050565b600060208201905081810360008301526142598161421d565b9050919050565b600060e082019050818103600083015261427a818a613051565b9050818103602083015261428e8189613051565b905081810360408301526142a28188613051565b905081810360608301526142b68187613051565b905081810360808301526142ca8186613051565b90506142d960a08301856130ff565b6142e660c0830184612acc565b98975050505050505050565b600081905092915050565b60006143088261300b565b61431281856142f2565b9350614322818560208601613027565b80840191505092915050565b60008160f81b9050919050565b60006143468261432e565b9050919050565b61435e61435982612e14565b61433b565b82525050565b6000819050919050565b61437f61437a82612ac2565b614364565b82525050565b6000614391828a6142fd565b915061439d82896142fd565b91506143a982886142fd565b91506143b582876142fd565b91506143c182866142fd565b91506143cd828561434d565b6001820191506143dd828461436e565b60208201915081905098975050505050505050565b7f4f776e61626c653a206e6577206f776e657220697320746865207a65726f206160008201527f6464726573730000000000000000000000000000000000000000000000000000602082015250565b600061444e602683613016565b9150614459826143f2565b604082019050919050565b6000602082019050818103600083015261447d81614441565b9050919050565b7f5265656e7472616e637947756172643a207265656e7472616e742063616c6c00600082015250565b60006144ba601f83613016565b91506144c582614484565b602082019050919050565b600060208201905081810360008301526144e9816144ad565b9050919050565b7f4f776e61626c653a2063616c6c6572206973206e6f7420746865206f776e6572600082015250565b6000614526602083613016565b9150614531826144f0565b602082019050919050565b6000602082019050818103600083015261455581614519565b905091905056fea2646970667358221220347c1516dd863e9ecd74ad5b8672b7c31ec2bd969349473d79d947efc3d445db64736f6c63430008180033",
  "linkReferences": {},
  "deployedLinkReferences": {}
}