{
  "_format": "hh-sol-artifact-1",
  "contractName": "Booking",
  "sourceName": "contracts/Booking.sol",
  "abi": [
    {
      "inputs": [
        {
          "internalType": "address",
          "name": "_dxlToken",
          "type": "address"
        }
      ],
      "stateMutability": "nonpayable",
      "type": "constructor"
    },
    {
      "anonymous": false,
      "inputs": [
        {
          "indexed": true,
          "internalType": "bytes32",
          "name": "bookingId",
          "type": "bytes32"
        },
        {
          "indexed": false,
          "internalType": "string",
          "name": "roomId",
          "type": "string"
        },
        {
          "indexed": false,
          "internalType": "string",
          "name": "roomName",
          "type": "string"
        },
        {
          "indexed": false,
          "internalType": "string",
          "name": "areaId",
          "type": "string"
        },
        {
          "indexed": false,
          "internalType": "string",
          "name": "areaName",
          "type": "string"
        },
        {
          "indexed": false,
          "internalType": "string",
          "name": "position",
          "type": "string"
        },
        {
          "indexed": false,
          "internalType": "uint256",
          "name": "refundAmount",
          "type": "uint256"
        }
      ],
      "name": "BookingCancelled",
      "type": "event"
    },
    {
      "anonymous": false,
      "inputs": [
        {
          "indexed": true,
          "internalType": "bytes32",
          "name": "bookingId",
          "type": "bytes32"
        }
      ],
      "name": "BookingCheckedIn",
      "type": "event"
    },
    {
      "anonymous": false,
      "inputs": [
        {
          "indexed": true,
          "internalType": "bytes32",
          "name": "bookingId",
          "type": "bytes32"
        },
        {
          "indexed": false,
          "internalType": "string",
          "name": "roomId",
          "type": "string"
        },
        {
          "indexed": false,
          "internalType": "string",
          "name": "roomName",
          "type": "string"
        },
        {
          "indexed": false,
          "internalType": "string",
          "name": "areaId",
          "type": "string"
        },
        {
          "indexed": false,
          "internalType": "string",
          "name": "areaName",
          "type": "string"
        },
        {
          "indexed": false,
          "internalType": "string",
          "name": "position",
          "type": "string"
        },
        {
          "indexed": false,
          "internalType": "uint8",
          "name": "slot",
          "type": "uint8"
        },
        {
          "indexed": true,
          "internalType": "address",
          "name": "user",
          "type": "address"
        },
        {
          "indexed": false,
          "internalType": "uint256",
          "name": "time",
          "type": "uint256"
        }
      ],
      "name": "BookingCreated",
      "type": "event"
    },
    {
      "anonymous": false,
      "inputs": [
        {
          "indexed": true,
          "internalType": "address",
          "name": "previousOwner",
          "type": "address"
        },
        {
          "indexed": true,
          "internalType": "address",
          "name": "newOwner",
          "type": "address"
        }
      ],
      "name": "OwnershipTransferred",
      "type": "event"
    },
    {
      "anonymous": false,
      "inputs": [
        {
          "indexed": true,
          "internalType": "address",
          "name": "user",
          "type": "address"
        },
        {
          "indexed": false,
          "internalType": "uint256",
          "name": "amount",
          "type": "uint256"
        }
      ],
      "name": "TokensDeposited",
      "type": "event"
    },
    {
      "anonymous": false,
      "inputs": [
        {
          "indexed": true,
          "internalType": "address",
          "name": "user",
          "type": "address"
        },
        {
          "indexed": false,
          "internalType": "uint256",
          "name": "amount",
          "type": "uint256"
        }
      ],
      "name": "TokensWithdrawn",
      "type": "event"
    },
    {
      "anonymous": false,
      "inputs": [
        {
          "indexed": true,
          "internalType": "address",
          "name": "user",
          "type": "address"
        }
      ],
      "name": "UserBlocked",
      "type": "event"
    },
    {
      "anonymous": false,
      "inputs": [
        {
          "indexed": true,
          "internalType": "address",
          "name": "user",
          "type": "address"
        },
        {
          "indexed": false,
          "internalType": "string",
          "name": "email",
          "type": "string"
        },
        {
          "indexed": false,
          "internalType": "bool",
          "name": "isStaff",
          "type": "bool"
        }
      ],
      "name": "UserRegistered",
      "type": "event"
    },
    {
      "anonymous": false,
      "inputs": [
        {
          "indexed": true,
          "internalType": "address",
          "name": "user",
          "type": "address"
        }
      ],
      "name": "UserUnblocked",
      "type": "event"
    },
    {
      "inputs": [],
      "name": "CHECK_IN",
      "outputs": [
        {
          "internalType": "uint256",
          "name": "",
          "type": "uint256"
        }
      ],
      "stateMutability": "view",
      "type": "function"
    },
    {
      "inputs": [],
      "name": "MAX_SLOTS",
      "outputs": [
        {
          "internalType": "uint256",
          "name": "",
          "type": "uint256"
        }
      ],
      "stateMutability": "view",
      "type": "function"
    },
    {
      "inputs": [],
      "name": "PENALTY_AMOUNT",
      "outputs": [
        {
          "internalType": "uint256",
          "name": "",
          "type": "uint256"
        }
      ],
      "stateMutability": "view",
      "type": "function"
    },
    {
      "inputs": [],
      "name": "SLOT_PRICE",
      "outputs": [
        {
          "internalType": "uint256",
          "name": "",
          "type": "uint256"
        }
      ],
      "stateMutability": "view",
      "type": "function"
    },
    {
      "inputs": [
        {
          "internalType": "string",
          "name": "roomId",
          "type": "string"
        },
        {
          "internalType": "string",
          "name": "roomName",
          "type": "string"
        },
        {
          "internalType": "string",
          "name": "areaId",
          "type": "string"
        },
        {
          "internalType": "string",
          "name": "areaName",
          "type": "string"
        },
        {
          "internalType": "string",
          "name": "position",
          "type": "string"
        },
        {
          "internalType": "uint8",
          "name": "slot",
          "type": "uint8"
        },
        {
          "internalType": "uint256",
          "name": "time",
          "type": "uint256"
        }
      ],
      "name": "book",
      "outputs": [],
      "stateMutability": "nonpayable",
      "type": "function"
    },
    {
      "inputs": [
        {
          "internalType": "bytes32",
          "name": "",
          "type": "bytes32"
        }
      ],
      "name": "bookings",
      "outputs": [
        {
          "internalType": "string",
          "name": "roomId",
          "type": "string"
        },
        {
          "internalType": "string",
          "name": "roomName",
          "type": "string"
        },
        {
          "internalType": "string",
          "name": "areaId",
          "type": "string"
        },
        {
          "internalType": "string",
          "name": "areaName",
          "type": "string"
        },
        {
          "internalType": "string",
          "name": "position",
          "type": "string"
        },
        {
          "internalType": "uint8",
          "name": "slot",
          "type": "uint8"
        },
        {
          "internalType": "address",
          "name": "user",
          "type": "address"
        },
        {
          "internalType": "uint256",
          "name": "price",
          "type": "uint256"
        },
        {
          "internalType": "uint256",
          "name": "time",
          "type": "uint256"
        },
        {
          "internalType": "bool",
          "name": "checkedIn",
          "type": "bool"
        },
        {
          "internalType": "bool",
          "name": "cancelled",
          "type": "bool"
        }
      ],
      "stateMutability": "view",
      "type": "function"
    },
    {
      "inputs": [
        {
          "internalType": "bytes32",
          "name": "bookingId",
          "type": "bytes32"
        }
      ],
      "name": "cancelBooking",
      "outputs": [],
      "stateMutability": "nonpayable",
      "type": "function"
    },
    {
      "inputs": [
        {
          "internalType": "bytes32",
          "name": "bookingId",
          "type": "bytes32"
        }
      ],
      "name": "checkIn",
      "outputs": [],
      "stateMutability": "nonpayable",
      "type": "function"
    },
    {
      "inputs": [
        {
          "internalType": "uint256",
          "name": "amount",
          "type": "uint256"
        }
      ],
      "name": "depositTokens",
      "outputs": [],
      "stateMutability": "nonpayable",
      "type": "function"
    },
    {
      "inputs": [],
      "name": "dxlToken",
      "outputs": [
        {
          "internalType": "contract DXLABCoin",
          "name": "",
          "type": "address"
        }
      ],
      "stateMutability": "view",
      "type": "function"
    },
    {
      "inputs": [
        {
          "internalType": "string",
          "name": "roomId",
          "type": "string"
        },
        {
          "internalType": "uint8",
          "name": "slot",
          "type": "uint8"
        },
        {
          "internalType": "uint256",
          "name": "time",
          "type": "uint256"
        }
      ],
      "name": "generateBookingId",
      "outputs": [
        {
          "internalType": "bytes32",
          "name": "",
          "type": "bytes32"
        }
      ],
      "stateMutability": "pure",
      "type": "function"
    },
    {
      "inputs": [
        {
          "internalType": "string",
          "name": "roomId",
          "type": "string"
        },
        {
          "internalType": "uint8",
          "name": "slot",
          "type": "uint8"
        },
        {
          "internalType": "uint256",
          "name": "date",
          "type": "uint256"
        }
      ],
      "name": "generateRoomSlotId",
      "outputs": [
        {
          "internalType": "bytes32",
          "name": "",
          "type": "bytes32"
        }
      ],
      "stateMutability": "pure",
      "type": "function"
    },
    {
      "inputs": [],
      "name": "owner",
      "outputs": [
        {
          "internalType": "address",
          "name": "",
          "type": "address"
        }
      ],
      "stateMutability": "view",
      "type": "function"
    },
    {
      "inputs": [],
      "name": "reactivateAccount",
      "outputs": [],
      "stateMutability": "nonpayable",
      "type": "function"
    },
    {
      "inputs": [
        {
          "internalType": "address",
          "name": "userAddress",
          "type": "address"
        },
        {
          "internalType": "string",
          "name": "email",
          "type": "string"
        },
        {
          "internalType": "bool",
          "name": "isStaff",
          "type": "bool"
        }
      ],
      "name": "registerUser",
      "outputs": [],
      "stateMutability": "nonpayable",
      "type": "function"
    },
    {
      "inputs": [],
      "name": "renounceOwnership",
      "outputs": [],
      "stateMutability": "nonpayable",
      "type": "function"
    },
    {
      "inputs": [
        {
          "internalType": "bytes32",
          "name": "",
          "type": "bytes32"
        }
      ],
      "name": "roomSlotBooked",
      "outputs": [
        {
          "internalType": "bool",
          "name": "",
          "type": "bool"
        }
      ],
      "stateMutability": "view",
      "type": "function"
    },
    {
      "inputs": [
        {
          "internalType": "address",
          "name": "newOwner",
          "type": "address"
        }
      ],
      "name": "transferOwnership",
      "outputs": [],
      "stateMutability": "nonpayable",
      "type": "function"
    },
    {
      "inputs": [
        {
          "internalType": "address",
          "name": "",
          "type": "address"
        }
      ],
      "name": "users",
      "outputs": [
        {
          "internalType": "bool",
          "name": "isRegistered",
          "type": "bool"
        },
        {
          "internalType": "bool",
          "name": "isStaff",
          "type": "bool"
        },
        {
          "internalType": "uint256",
          "name": "consecutiveCancellations",
          "type": "uint256"
        },
        {
          "internalType": "uint256",
          "name": "blockEndTime",
          "type": "uint256"
        },
        {
          "internalType": "string",
          "name": "email",
          "type": "string"
        }
      ],
      "stateMutability": "view",
      "type": "function"
    },
    {
      "inputs": [
        {
          "internalType": "uint256",
          "name": "amount",
          "type": "uint256"
        }
      ],
      "name": "withdrawTokens",
      "outputs": [],
      "stateMutability": "nonpayable",
      "type": "function"
    }
  ],
  "bytecode": "0x60806040523480156200001157600080fd5b5060405162003ed438038062003ed48339818101604052810190620000379190620001dc565b620000576200004b620000a660201b60201c565b620000ae60201b60201c565b6001808190555080600260006101000a81548173ffffffffffffffffffffffffffffffffffffffff021916908373ffffffffffffffffffffffffffffffffffffffff160217905550506200020e565b600033905090565b60008060009054906101000a900473ffffffffffffffffffffffffffffffffffffffff169050816000806101000a81548173ffffffffffffffffffffffffffffffffffffffff021916908373ffffffffffffffffffffffffffffffffffffffff1602179055508173ffffffffffffffffffffffffffffffffffffffff168173ffffffffffffffffffffffffffffffffffffffff167f8be0079c531659141344cd1fd0a4f28419497f9722a3daafe3b4186f6b6457e060405160405180910390a35050565b600080fd5b600073ffffffffffffffffffffffffffffffffffffffff82169050919050565b6000620001a48262000177565b9050919050565b620001b68162000197565b8114620001c257600080fd5b50565b600081519050620001d681620001ab565b92915050565b600060208284031215620001f557620001f462000172565b5b60006200020584828501620001c5565b91505092915050565b613cb6806200021e6000396000f3fe608060405234801561001057600080fd5b506004361061012c5760003560e01c8063715018a6116100ad578063b8ac250211610071578063b8ac2502146102fb578063bbacc1871461032b578063c0f3f2e914610365578063dd49756e14610383578063f2fde38b1461039f5761012c565b8063715018a6146102535780637aa7ae9a1461025d5780637dd6e44b1461028d5780638da5cb5b146102a9578063a87430ba146102c75761012c565b80633ffd65cc116100f45780633ffd65cc146101c15780634662d1dd146101df57806354a10b07146101fb5780635bbf11b21461022b5780635cec72a4146102355761012c565b80630ac1618b14610131578063117b04b01461014d57806316596d7f1461016b578063315a095d146101875780633a04d699146101a3575b600080fd5b61014b600480360381019061014691906122d1565b6103bb565b005b6101556108a5565b6040516101629190612317565b60405180910390f35b6101856004803603810190610180919061250e565b6108ab565b005b6101a1600480360381019061019c91906125a9565b610b36565b005b6101ab610d48565b6040516101b89190612635565b60405180910390f35b6101c9610d6e565b6040516101d69190612317565b60405180910390f35b6101f960048036038101906101f491906122d1565b610d7a565b005b61021560048036038101906102109190612689565b611040565b6040516102229190612707565b60405180910390f35b610233611076565b005b61023d611337565b60405161024a9190612317565b60405180910390f35b61025b611343565b005b61027760048036038101906102729190612689565b611357565b6040516102849190612707565b60405180910390f35b6102a760048036038101906102a29190612722565b61138d565b005b6102b16119df565b6040516102be919061285f565b60405180910390f35b6102e160048036038101906102dc919061287a565b611a08565b6040516102f2959493929190612935565b60405180910390f35b610315600480360381019061031091906122d1565b611ae0565b604051610322919061298f565b60405180910390f35b610345600480360381019061034091906122d1565b611b00565b60405161035c9b9a999897969594939291906129b9565b60405180910390f35b61036d611e49565b60405161037a9190612317565b60405180910390f35b61039d600480360381019061039891906125a9565b611e4e565b005b6103b960048036038101906103b4919061287a565b612062565b005b6103c36120e5565b60006004600083815260200190815260200160002090503373ffffffffffffffffffffffffffffffffffffffff168160050160019054906101000a900473ffffffffffffffffffffffffffffffffffffffff1673ffffffffffffffffffffffffffffffffffffffff161461046c576040517f08c379a000000000000000000000000000000000000000000000000000000000815260040161046390612ad3565b60405180910390fd5b8060080160019054906101000a900460ff16156104be576040517f08c379a00000000000000000000000000000000000000000000000000000000081526004016104b590612b3f565b60405180910390fd5b8060080160009054906101000a900460ff1615610510576040517f08c379a000000000000000000000000000000000000000000000000000000000815260040161050790612bab565b60405180910390fd5b42816007015411610556576040517f08c379a000000000000000000000000000000000000000000000000000000000815260040161054d90612c17565b60405180910390fd5b6000804283600701546105699190612c66565b9050610e108110610580578260060154915061059e565b610708811061059d576002836006015461059a9190612cc9565b91505b5b60018360080160016101000a81548160ff02191690831515021790555060006106698460000180546105cf90612d29565b80601f01602080910402602001604051908101604052809291908181526020018280546105fb90612d29565b80156106485780601f1061061d57610100808354040283529160200191610648565b820191906000526020600020905b81548152906001019060200180831161062b57829003601f168201915b50505050508560050160009054906101000a900460ff168660070154611357565b905060006005600083815260200190815260200160002060006101000a81548160ff021916908315150217905550600083111561078057600260009054906101000a900473ffffffffffffffffffffffffffffffffffffffff1673ffffffffffffffffffffffffffffffffffffffff1663a9059cbb33856040518363ffffffff1660e01b81526004016106fd929190612d5a565b6020604051808303816000875af115801561071c573d6000803e3d6000fd5b505050506040513d601f19601f820116820180604052508101906107409190612d98565b61077f576040517f08c379a000000000000000000000000000000000000000000000000000000000815260040161077690612e11565b60405180910390fd5b5b6000600360003373ffffffffffffffffffffffffffffffffffffffff1673ffffffffffffffffffffffffffffffffffffffff16815260200190815260200160002090508060010160008154809291906107d890612e31565b919050555060038160010154106108445762093a80426107f89190612e79565b81600201819055503373ffffffffffffffffffffffffffffffffffffffff167fca86d8c91ca6d00afd863578cc633a0901fad724592f89649629fe65f61410d260405160405180910390a25b857f5453700425d9e59a5ef650f5fe7ed1113137bcc6663986f72117acf00d4f6a7b866000018760010188600201896003018a6004018a60405161088d96959493929190612f46565b60405180910390a250505050506108a2612134565b50565b61038481565b6108b36119df565b73ffffffffffffffffffffffffffffffffffffffff163373ffffffffffffffffffffffffffffffffffffffff1614806109385750600360003373ffffffffffffffffffffffffffffffffffffffff1673ffffffffffffffffffffffffffffffffffffffff16815260200190815260200160002060000160019054906101000a900460ff165b610977576040517f08c379a000000000000000000000000000000000000000000000000000000000815260040161096e9061303c565b60405180910390fd5b600360008473ffffffffffffffffffffffffffffffffffffffff1673ffffffffffffffffffffffffffffffffffffffff16815260200190815260200160002060000160009054906101000a900460ff1615610a07576040517f08c379a00000000000000000000000000000000000000000000000000000000081526004016109fe906130a8565b60405180910390fd5b6040518060a001604052806001151581526020018215158152602001600081526020016000815260200183815250600360008573ffffffffffffffffffffffffffffffffffffffff1673ffffffffffffffffffffffffffffffffffffffff16815260200190815260200160002060008201518160000160006101000a81548160ff02191690831515021790555060208201518160000160016101000a81548160ff02191690831515021790555060408201518160010155606082015181600201556080820151816003019081610add9190613255565b509050508273ffffffffffffffffffffffffffffffffffffffff167f0b2d2fe99b0620e0994de6f522eb19dcc5b5fd39b27be67cea0547c4ed9dbdfc8383604051610b29929190613327565b60405180910390a2505050565b600360003373ffffffffffffffffffffffffffffffffffffffff1673ffffffffffffffffffffffffffffffffffffffff16815260200190815260200160002060000160009054906101000a900460ff16610bc5576040517f08c379a0000000000000000000000000000000000000000000000000000000008152600401610bbc906133a3565b60405180910390fd5b610bcd6120e5565b60008111610c10576040517f08c379a0000000000000000000000000000000000000000000000000000000008152600401610c079061340f565b60405180910390fd5b600260009054906101000a900473ffffffffffffffffffffffffffffffffffffffff1673ffffffffffffffffffffffffffffffffffffffff1663a9059cbb33836040518363ffffffff1660e01b8152600401610c6d929190612d5a565b6020604051808303816000875af1158015610c8c573d6000803e3d6000fd5b505050506040513d601f19601f82011682018060405250810190610cb09190612d98565b610cef576040517f08c379a0000000000000000000000000000000000000000000000000000000008152600401610ce69061347b565b60405180910390fd5b3373ffffffffffffffffffffffffffffffffffffffff167f6352c5382c4a4578e712449ca65e83cdb392d045dfcf1cad9615189db2da244b82604051610d359190612317565b60405180910390a2610d45612134565b50565b600260009054906101000a900473ffffffffffffffffffffffffffffffffffffffff1681565b678ac7230489e8000081565b600360003373ffffffffffffffffffffffffffffffffffffffff1673ffffffffffffffffffffffffffffffffffffffff16815260200190815260200160002060000160009054906101000a900460ff16610e09576040517f08c379a0000000000000000000000000000000000000000000000000000000008152600401610e00906133a3565b60405180910390fd5b60006004600083815260200190815260200160002090503373ffffffffffffffffffffffffffffffffffffffff168160050160019054906101000a900473ffffffffffffffffffffffffffffffffffffffff1673ffffffffffffffffffffffffffffffffffffffff1614610eb2576040517f08c379a0000000000000000000000000000000000000000000000000000000008152600401610ea990612ad3565b60405180910390fd5b8060080160019054906101000a900460ff1615610f04576040517f08c379a0000000000000000000000000000000000000000000000000000000008152600401610efb906134e7565b60405180910390fd5b8060080160009054906101000a900460ff1615610f56576040517f08c379a0000000000000000000000000000000000000000000000000000000008152600401610f4d90612bab565b60405180910390fd5b6103848160070154610f689190612e79565b421115610faa576040517f08c379a0000000000000000000000000000000000000000000000000000000008152600401610fa190613553565b60405180910390fd5b60018160080160006101000a81548160ff0219169083151502179055506000600360003373ffffffffffffffffffffffffffffffffffffffff1673ffffffffffffffffffffffffffffffffffffffff16815260200190815260200160002060010181905550817fef1dfb221c790d33cde4e3fb4e6a5cd1d475e34eb73ae116df13301fb40b016c60405160405180910390a25050565b600083838360405160200161105793929190613606565b6040516020818303038152906040528051906020012090509392505050565b61107e6120e5565b6000600360003373ffffffffffffffffffffffffffffffffffffffff1673ffffffffffffffffffffffffffffffffffffffff168152602001908152602001600020905042816002015411611107576040517f08c379a00000000000000000000000000000000000000000000000000000000081526004016110fe9061368b565b60405180910390fd5b678ac7230489e80000600260009054906101000a900473ffffffffffffffffffffffffffffffffffffffff1673ffffffffffffffffffffffffffffffffffffffff166370a08231336040518263ffffffff1660e01b815260040161116b919061285f565b602060405180830381865afa158015611188573d6000803e3d6000fd5b505050506040513d601f19601f820116820180604052508101906111ac91906136c0565b10156111ed576040517f08c379a00000000000000000000000000000000000000000000000000000000081526004016111e490613739565b60405180910390fd5b600260009054906101000a900473ffffffffffffffffffffffffffffffffffffffff1673ffffffffffffffffffffffffffffffffffffffff166323b872dd3330678ac7230489e800006040518463ffffffff1660e01b815260040161125493929190613759565b6020604051808303816000875af1158015611273573d6000803e3d6000fd5b505050506040513d601f19601f820116820180604052508101906112979190612d98565b6112d6576040517f08c379a00000000000000000000000000000000000000000000000000000000081526004016112cd906137dc565b60405180910390fd5b428160020181905550600081600101819055503373ffffffffffffffffffffffffffffffffffffffff167f798117ec059ab8d319461ef2502b1f9d8a47cd966bfd1f3e23b6f26c30bebb7760405160405180910390a250611335612134565b565b674563918244f4000081565b61134b61213d565b61135560006121bb565b565b600083838360405160200161136e93929190613606565b6040516020818303038152906040528051906020012090509392505050565b600360003373ffffffffffffffffffffffffffffffffffffffff1673ffffffffffffffffffffffffffffffffffffffff16815260200190815260200160002060000160009054906101000a900460ff1661141c576040517f08c379a0000000000000000000000000000000000000000000000000000000008152600401611413906133a3565b60405180910390fd5b600360003373ffffffffffffffffffffffffffffffffffffffff1673ffffffffffffffffffffffffffffffffffffffff168152602001908152602001600020600201544210156114a1576040517f08c379a000000000000000000000000000000000000000000000000000000000815260040161149890613848565b60405180910390fd5b6114a96120e5565b60008260ff161180156114c0575060058260ff1611155b6114ff576040517f08c379a00000000000000000000000000000000000000000000000000000000081526004016114f6906138b4565b60405180910390fd5b428111611541576040517f08c379a000000000000000000000000000000000000000000000000000000000815260040161153890613920565b60405180910390fd5b600061154e888484611040565b9050600061155d898585611357565b90506005600082815260200190815260200160002060009054906101000a900460ff16156115c0576040517f08c379a00000000000000000000000000000000000000000000000000000000081526004016115b79061398c565b60405180910390fd5b674563918244f40000600260009054906101000a900473ffffffffffffffffffffffffffffffffffffffff1673ffffffffffffffffffffffffffffffffffffffff166370a08231336040518263ffffffff1660e01b8152600401611624919061285f565b602060405180830381865afa158015611641573d6000803e3d6000fd5b505050506040513d601f19601f8201168201806040525081019061166591906136c0565b10156116a6576040517f08c379a000000000000000000000000000000000000000000000000000000000815260040161169d906139f8565b60405180910390fd5b600260009054906101000a900473ffffffffffffffffffffffffffffffffffffffff1673ffffffffffffffffffffffffffffffffffffffff166323b872dd3330674563918244f400006040518463ffffffff1660e01b815260040161170d93929190613759565b6020604051808303816000875af115801561172c573d6000803e3d6000fd5b505050506040513d601f19601f820116820180604052508101906117509190612d98565b61178f576040517f08c379a000000000000000000000000000000000000000000000000000000000815260040161178690613a64565b60405180910390fd5b6040518061016001604052808a81526020018981526020018881526020018781526020018681526020018560ff1681526020013373ffffffffffffffffffffffffffffffffffffffff168152602001674563918244f4000081526020018481526020016000151581526020016000151581525060046000848152602001908152602001600020600082015181600001908161182a9190613255565b5060208201518160010190816118409190613255565b5060408201518160020190816118569190613255565b50606082015181600301908161186c9190613255565b5060808201518160040190816118829190613255565b5060a08201518160050160006101000a81548160ff021916908360ff16021790555060c08201518160050160016101000a81548173ffffffffffffffffffffffffffffffffffffffff021916908373ffffffffffffffffffffffffffffffffffffffff16021790555060e0820151816006015561010082015181600701556101208201518160080160006101000a81548160ff0219169083151502179055506101408201518160080160016101000a81548160ff02191690831515021790555090505060016005600083815260200190815260200160002060006101000a81548160ff0219169083151502179055503373ffffffffffffffffffffffffffffffffffffffff16827fc55f43a3d6e12514f6f8853aba2eb93f2ca255107e9fd0ead92b62fbf185eb778b8b8b8b8b8b8b6040516119c49796959493929190613a84565b60405180910390a350506119d6612134565b50505050505050565b60008060009054906101000a900473ffffffffffffffffffffffffffffffffffffffff16905090565b60036020528060005260406000206000915090508060000160009054906101000a900460ff16908060000160019054906101000a900460ff1690806001015490806002015490806003018054611a5d90612d29565b80601f0160208091040260200160405190810160405280929190818152602001828054611a8990612d29565b8015611ad65780601f10611aab57610100808354040283529160200191611ad6565b820191906000526020600020905b815481529060010190602001808311611ab957829003601f168201915b5050505050905085565b60056020528060005260406000206000915054906101000a900460ff1681565b6004602052806000526040600020600091509050806000018054611b2390612d29565b80601f0160208091040260200160405190810160405280929190818152602001828054611b4f90612d29565b8015611b9c5780601f10611b7157610100808354040283529160200191611b9c565b820191906000526020600020905b815481529060010190602001808311611b7f57829003601f168201915b505050505090806001018054611bb190612d29565b80601f0160208091040260200160405190810160405280929190818152602001828054611bdd90612d29565b8015611c2a5780601f10611bff57610100808354040283529160200191611c2a565b820191906000526020600020905b815481529060010190602001808311611c0d57829003601f168201915b505050505090806002018054611c3f90612d29565b80601f0160208091040260200160405190810160405280929190818152602001828054611c6b90612d29565b8015611cb85780601f10611c8d57610100808354040283529160200191611cb8565b820191906000526020600020905b815481529060010190602001808311611c9b57829003601f168201915b505050505090806003018054611ccd90612d29565b80601f0160208091040260200160405190810160405280929190818152602001828054611cf990612d29565b8015611d465780601f10611d1b57610100808354040283529160200191611d46565b820191906000526020600020905b815481529060010190602001808311611d2957829003601f168201915b505050505090806004018054611d5b90612d29565b80601f0160208091040260200160405190810160405280929190818152602001828054611d8790612d29565b8015611dd45780601f10611da957610100808354040283529160200191611dd4565b820191906000526020600020905b815481529060010190602001808311611db757829003601f168201915b5050505050908060050160009054906101000a900460ff16908060050160019054906101000a900473ffffffffffffffffffffffffffffffffffffffff16908060060154908060070154908060080160009054906101000a900460ff16908060080160019054906101000a900460ff1690508b565b600581565b600360003373ffffffffffffffffffffffffffffffffffffffff1673ffffffffffffffffffffffffffffffffffffffff16815260200190815260200160002060000160009054906101000a900460ff16611edd576040517f08c379a0000000000000000000000000000000000000000000000000000000008152600401611ed4906133a3565b60405180910390fd5b611ee56120e5565b60008111611f28576040517f08c379a0000000000000000000000000000000000000000000000000000000008152600401611f1f9061340f565b60405180910390fd5b600260009054906101000a900473ffffffffffffffffffffffffffffffffffffffff1673ffffffffffffffffffffffffffffffffffffffff166323b872dd3330846040518463ffffffff1660e01b8152600401611f8793929190613759565b6020604051808303816000875af1158015611fa6573d6000803e3d6000fd5b505050506040513d601f19601f82011682018060405250810190611fca9190612d98565b612009576040517f08c379a00000000000000000000000000000000000000000000000000000000081526004016120009061347b565b60405180910390fd5b3373ffffffffffffffffffffffffffffffffffffffff167f59062170a285eb80e8c6b8ced60428442a51910635005233fc4ce084a475845e8260405161204f9190612317565b60405180910390a261205f612134565b50565b61206a61213d565b600073ffffffffffffffffffffffffffffffffffffffff168173ffffffffffffffffffffffffffffffffffffffff16036120d9576040517f08c379a00000000000000000000000000000000000000000000000000000000081526004016120d090613b88565b60405180910390fd5b6120e2816121bb565b50565b60026001540361212a576040517f08c379a000000000000000000000000000000000000000000000000000000000815260040161212190613bf4565b60405180910390fd5b6002600181905550565b60018081905550565b61214561227f565b73ffffffffffffffffffffffffffffffffffffffff166121636119df565b73ffffffffffffffffffffffffffffffffffffffff16146121b9576040517f08c379a00000000000000000000000000000000000000000000000000000000081526004016121b090613c60565b60405180910390fd5b565b60008060009054906101000a900473ffffffffffffffffffffffffffffffffffffffff169050816000806101000a81548173ffffffffffffffffffffffffffffffffffffffff021916908373ffffffffffffffffffffffffffffffffffffffff1602179055508173ffffffffffffffffffffffffffffffffffffffff168173ffffffffffffffffffffffffffffffffffffffff167f8be0079c531659141344cd1fd0a4f28419497f9722a3daafe3b4186f6b6457e060405160405180910390a35050565b600033905090565b6000604051905090565b600080fd5b600080fd5b6000819050919050565b6122ae8161229b565b81146122b957600080fd5b50565b6000813590506122cb816122a5565b92915050565b6000602082840312156122e7576122e6612291565b5b60006122f5848285016122bc565b91505092915050565b6000819050919050565b612311816122fe565b82525050565b600060208201905061232c6000830184612308565b92915050565b600073ffffffffffffffffffffffffffffffffffffffff82169050919050565b600061235d82612332565b9050919050565b61236d81612352565b811461237857600080fd5b50565b60008135905061238a81612364565b92915050565b600080fd5b600080fd5b6000601f19601f8301169050919050565b7f4e487b7100000000000000000000000000000000000000000000000000000000600052604160045260246000fd5b6123e38261239a565b810181811067ffffffffffffffff82111715612402576124016123ab565b5b80604052505050565b6000612415612287565b905061242182826123da565b919050565b600067ffffffffffffffff821115612441576124406123ab565b5b61244a8261239a565b9050602081019050919050565b82818337600083830152505050565b600061247961247484612426565b61240b565b90508281526020810184848401111561249557612494612395565b5b6124a0848285612457565b509392505050565b600082601f8301126124bd576124bc612390565b5b81356124cd848260208601612466565b91505092915050565b60008115159050919050565b6124eb816124d6565b81146124f657600080fd5b50565b600081359050612508816124e2565b92915050565b60008060006060848603121561252757612526612291565b5b60006125358682870161237b565b935050602084013567ffffffffffffffff81111561255657612555612296565b5b612562868287016124a8565b9250506040612573868287016124f9565b9150509250925092565b612586816122fe565b811461259157600080fd5b50565b6000813590506125a38161257d565b92915050565b6000602082840312156125bf576125be612291565b5b60006125cd84828501612594565b91505092915050565b6000819050919050565b60006125fb6125f66125f184612332565b6125d6565b612332565b9050919050565b600061260d826125e0565b9050919050565b600061261f82612602565b9050919050565b61262f81612614565b82525050565b600060208201905061264a6000830184612626565b92915050565b600060ff82169050919050565b61266681612650565b811461267157600080fd5b50565b6000813590506126838161265d565b92915050565b6000806000606084860312156126a2576126a1612291565b5b600084013567ffffffffffffffff8111156126c0576126bf612296565b5b6126cc868287016124a8565b93505060206126dd86828701612674565b92505060406126ee86828701612594565b9150509250925092565b6127018161229b565b82525050565b600060208201905061271c60008301846126f8565b92915050565b600080600080600080600060e0888a03121561274157612740612291565b5b600088013567ffffffffffffffff81111561275f5761275e612296565b5b61276b8a828b016124a8565b975050602088013567ffffffffffffffff81111561278c5761278b612296565b5b6127988a828b016124a8565b965050604088013567ffffffffffffffff8111156127b9576127b8612296565b5b6127c58a828b016124a8565b955050606088013567ffffffffffffffff8111156127e6576127e5612296565b5b6127f28a828b016124a8565b945050608088013567ffffffffffffffff81111561281357612812612296565b5b61281f8a828b016124a8565b93505060a06128308a828b01612674565b92505060c06128418a828b01612594565b91505092959891949750929550565b61285981612352565b82525050565b60006020820190506128746000830184612850565b92915050565b6000602082840312156128905761288f612291565b5b600061289e8482850161237b565b91505092915050565b6128b0816124d6565b82525050565b600081519050919050565b600082825260208201905092915050565b60005b838110156128f05780820151818401526020810190506128d5565b60008484015250505050565b6000612907826128b6565b61291181856128c1565b93506129218185602086016128d2565b61292a8161239a565b840191505092915050565b600060a08201905061294a60008301886128a7565b61295760208301876128a7565b6129646040830186612308565b6129716060830185612308565b818103608083015261298381846128fc565b90509695505050505050565b60006020820190506129a460008301846128a7565b92915050565b6129b381612650565b82525050565b60006101608201905081810360008301526129d4818e6128fc565b905081810360208301526129e8818d6128fc565b905081810360408301526129fc818c6128fc565b90508181036060830152612a10818b6128fc565b90508181036080830152612a24818a6128fc565b9050612a3360a08301896129aa565b612a4060c0830188612850565b612a4d60e0830187612308565b612a5b610100830186612308565b612a696101208301856128a7565b612a776101408301846128a7565b9c9b505050505050505050505050565b7f4e6f742074686520626f6f6b696e67206f776e65720000000000000000000000600082015250565b6000612abd6015836128c1565b9150612ac882612a87565b602082019050919050565b60006020820190508181036000830152612aec81612ab0565b9050919050565b7f426f6f6b696e6720616c72656164792063616e63656c6c656400000000000000600082015250565b6000612b296019836128c1565b9150612b3482612af3565b602082019050919050565b60006020820190508181036000830152612b5881612b1c565b9050919050565b7f416c726561647920636865636b656420696e0000000000000000000000000000600082015250565b6000612b956012836128c1565b9150612ba082612b5f565b602082019050919050565b60006020820190508181036000830152612bc481612b88565b9050919050565b7f426f6f6b696e672074696d652070617373656400000000000000000000000000600082015250565b6000612c016013836128c1565b9150612c0c82612bcb565b602082019050919050565b60006020820190508181036000830152612c3081612bf4565b9050919050565b7f4e487b7100000000000000000000000000000000000000000000000000000000600052601160045260246000fd5b6000612c71826122fe565b9150612c7c836122fe565b9250828203905081811115612c9457612c93612c37565b5b92915050565b7f4e487b7100000000000000000000000000000000000000000000000000000000600052601260045260246000fd5b6000612cd4826122fe565b9150612cdf836122fe565b925082612cef57612cee612c9a565b5b828204905092915050565b7f4e487b7100000000000000000000000000000000000000000000000000000000600052602260045260246000fd5b60006002820490506001821680612d4157607f821691505b602082108103612d5457612d53612cfa565b5b50919050565b6000604082019050612d6f6000830185612850565b612d7c6020830184612308565b9392505050565b600081519050612d92816124e2565b92915050565b600060208284031215612dae57612dad612291565b5b6000612dbc84828501612d83565b91505092915050565b7f526566756e64206661696c656400000000000000000000000000000000000000600082015250565b6000612dfb600d836128c1565b9150612e0682612dc5565b602082019050919050565b60006020820190508181036000830152612e2a81612dee565b9050919050565b6000612e3c826122fe565b91507fffffffffffffffffffffffffffffffffffffffffffffffffffffffffffffffff8203612e6e57612e6d612c37565b5b600182019050919050565b6000612e84826122fe565b9150612e8f836122fe565b9250828201905080821115612ea757612ea6612c37565b5b92915050565b60008190508160005260206000209050919050565b60008154612ecf81612d29565b612ed981866128c1565b94506001821660008114612ef45760018114612f0a57612f3d565b60ff198316865281151560200286019350612f3d565b612f1385612ead565b60005b83811015612f3557815481890152600182019150602081019050612f16565b808801955050505b50505092915050565b600060c0820190508181036000830152612f608189612ec2565b90508181036020830152612f748188612ec2565b90508181036040830152612f888187612ec2565b90508181036060830152612f9c8186612ec2565b90508181036080830152612fb08185612ec2565b9050612fbf60a0830184612308565b979650505050505050565b7f4f6e6c792073746166662063616e20706572666f726d2074686973206163746960008201527f6f6e000000000000000000000000000000000000000000000000000000000000602082015250565b60006130266022836128c1565b915061303182612fca565b604082019050919050565b6000602082019050818103600083015261305581613019565b9050919050565b7f5573657220616c72656164792072656769737465726564000000000000000000600082015250565b60006130926017836128c1565b915061309d8261305c565b602082019050919050565b600060208201905081810360008301526130c181613085565b9050919050565b60006020601f8301049050919050565b600082821b905092915050565b6000600883026131157fffffffffffffffffffffffffffffffffffffffffffffffffffffffffffffffff826130d8565b61311f86836130d8565b95508019841693508086168417925050509392505050565b600061315261314d613148846122fe565b6125d6565b6122fe565b9050919050565b6000819050919050565b61316c83613137565b61318061317882613159565b8484546130e5565b825550505050565b600090565b613195613188565b6131a0818484613163565b505050565b5b818110156131c4576131b960008261318d565b6001810190506131a6565b5050565b601f821115613209576131da81612ead565b6131e3846130c8565b810160208510156131f2578190505b6132066131fe856130c8565b8301826131a5565b50505b505050565b600082821c905092915050565b600061322c6000198460080261320e565b1980831691505092915050565b6000613245838361321b565b9150826002028217905092915050565b61325e826128b6565b67ffffffffffffffff811115613277576132766123ab565b5b6132818254612d29565b61328c8282856131c8565b600060209050601f8311600181146132bf57600084156132ad578287015190505b6132b78582613239565b86555061331f565b601f1984166132cd86612ead565b60005b828110156132f5578489015182556001820191506020850194506020810190506132d0565b86831015613312578489015161330e601f89168261321b565b8355505b6001600288020188555050505b505050505050565b6000604082019050818103600083015261334181856128fc565b905061335060208301846128a7565b9392505050565b7f55736572206e6f74207265676973746572656400000000000000000000000000600082015250565b600061338d6013836128c1565b915061339882613357565b602082019050919050565b600060208201905081810360008301526133bc81613380565b9050919050565b7f416d6f756e74206d7573742062652067726561746572207468616e2030000000600082015250565b60006133f9601d836128c1565b9150613404826133c3565b602082019050919050565b60006020820190508181036000830152613428816133ec565b9050919050565b7f5472616e73666572206661696c65640000000000000000000000000000000000600082015250565b6000613465600f836128c1565b91506134708261342f565b602082019050919050565b6000602082019050818103600083015261349481613458565b9050919050565b7f426f6f6b696e672063616e63656c6c6564000000000000000000000000000000600082015250565b60006134d16011836128c1565b91506134dc8261349b565b602082019050919050565b60006020820190508181036000830152613500816134c4565b9050919050565b7f436865636b2d696e2077696e646f772070617373656400000000000000000000600082015250565b600061353d6016836128c1565b915061354882613507565b602082019050919050565b6000602082019050818103600083015261356c81613530565b9050919050565b600081905092915050565b6000613589826128b6565b6135938185613573565b93506135a38185602086016128d2565b80840191505092915050565b60008160f81b9050919050565b60006135c7826135af565b9050919050565b6135df6135da82612650565b6135bc565b82525050565b6000819050919050565b6136006135fb826122fe565b6135e5565b82525050565b6000613612828661357e565b915061361e82856135ce565b60018201915061362e82846135ef565b602082019150819050949350505050565b7f4163636f756e74206e6f7420626c6f636b656400000000000000000000000000600082015250565b60006136756013836128c1565b91506136808261363f565b602082019050919050565b600060208201905081810360008301526136a481613668565b9050919050565b6000815190506136ba8161257d565b92915050565b6000602082840312156136d6576136d5612291565b5b60006136e4848285016136ab565b91505092915050565b7f496e73756666696369656e742070656e616c747920616d6f756e740000000000600082015250565b6000613723601b836128c1565b915061372e826136ed565b602082019050919050565b6000602082019050818103600083015261375281613716565b9050919050565b600060608201905061376e6000830186612850565b61377b6020830185612850565b6137886040830184612308565b949350505050565b7f50656e616c7479207061796d656e74206661696c656400000000000000000000600082015250565b60006137c66016836128c1565b91506137d182613790565b602082019050919050565b600060208201905081810360008301526137f5816137b9565b9050919050565b7f5573657220697320626c6f636b65640000000000000000000000000000000000600082015250565b6000613832600f836128c1565b915061383d826137fc565b602082019050919050565b6000602082019050818103600083015261386181613825565b9050919050565b7f496e76616c696420736c6f74206e756d62657200000000000000000000000000600082015250565b600061389e6013836128c1565b91506138a982613868565b602082019050919050565b600060208201905081810360008301526138cd81613891565b9050919050565b7f43616e6e6f7420626f6f6b20696e207468652070617374000000000000000000600082015250565b600061390a6017836128c1565b9150613915826138d4565b602082019050919050565b60006020820190508181036000830152613939816138fd565b9050919050565b7f536c6f7420616c726561647920626f6f6b656400000000000000000000000000600082015250565b60006139766013836128c1565b915061398182613940565b602082019050919050565b600060208201905081810360008301526139a581613969565b9050919050565b7f496e73756666696369656e74204650542062616c616e63650000000000000000600082015250565b60006139e26018836128c1565b91506139ed826139ac565b602082019050919050565b60006020820190508181036000830152613a11816139d5565b9050919050565b7f546f6b656e207472616e73666572206661696c65640000000000000000000000600082015250565b6000613a4e6015836128c1565b9150613a5982613a18565b602082019050919050565b60006020820190508181036000830152613a7d81613a41565b9050919050565b600060e0820190508181036000830152613a9e818a6128fc565b90508181036020830152613ab281896128fc565b90508181036040830152613ac681886128fc565b90508181036060830152613ada81876128fc565b90508181036080830152613aee81866128fc565b9050613afd60a08301856129aa565b613b0a60c0830184612308565b98975050505050505050565b7f4f776e61626c653a206e6577206f776e657220697320746865207a65726f206160008201527f6464726573730000000000000000000000000000000000000000000000000000602082015250565b6000613b726026836128c1565b9150613b7d82613b16565b604082019050919050565b60006020820190508181036000830152613ba181613b65565b9050919050565b7f5265656e7472616e637947756172643a207265656e7472616e742063616c6c00600082015250565b6000613bde601f836128c1565b9150613be982613ba8565b602082019050919050565b60006020820190508181036000830152613c0d81613bd1565b9050919050565b7f4f776e61626c653a2063616c6c6572206973206e6f7420746865206f776e6572600082015250565b6000613c4a6020836128c1565b9150613c5582613c14565b602082019050919050565b60006020820190508181036000830152613c7981613c3d565b905091905056fea264697066735822122022db032b1dc1bc08acb68d0cbd018f9fd4cd4f851279fda92d9048b056a528dc64736f6c63430008180033",
  "linkReferences": {},
  "deployedLinkReferences": {}
}