{
  "_format": "hh-sol-artifact-1",
  "contractName": "LabBookingSystem",
  "sourceName": "contracts/LabBookingSystem.sol",
  "abi": [
    {
      "inputs": [
        {
          "internalType": "address",
          "name": "_fptToken",
          "type": "address"
        }
      ],
      "stateMutability": "nonpayable",
      "type": "constructor"
    },
    {
      "anonymous": false,
      "inputs": [
        {
          "indexed": true,
          "internalType": "bytes32",
          "name": "bookingId",
          "type": "bytes32"
        },
        {
          "indexed": false,
          "internalType": "uint256",
          "name": "refundAmount",
          "type": "uint256"
        }
      ],
      "name": "BookingCancelled",
      "type": "event"
    },
    {
      "anonymous": false,
      "inputs": [
        {
          "indexed": true,
          "internalType": "bytes32",
          "name": "bookingId",
          "type": "bytes32"
        }
      ],
      "name": "BookingCheckedIn",
      "type": "event"
    },
    {
      "anonymous": false,
      "inputs": [
        {
          "indexed": true,
          "internalType": "bytes32",
          "name": "bookingId",
          "type": "bytes32"
        },
        {
          "indexed": false,
          "internalType": "string",
          "name": "roomId",
          "type": "string"
        },
        {
          "indexed": false,
          "internalType": "uint8",
          "name": "slot",
          "type": "uint8"
        },
        {
          "indexed": false,
          "internalType": "address",
          "name": "user",
          "type": "address"
        },
        {
          "indexed": false,
          "internalType": "uint256",
          "name": "time",
          "type": "uint256"
        }
      ],
      "name": "BookingCreated",
      "type": "event"
    },
    {
      "anonymous": false,
      "inputs": [
        {
          "indexed": true,
          "internalType": "address",
          "name": "previousOwner",
          "type": "address"
        },
        {
          "indexed": true,
          "internalType": "address",
          "name": "newOwner",
          "type": "address"
        }
      ],
      "name": "OwnershipTransferred",
      "type": "event"
    },
    {
      "anonymous": false,
      "inputs": [
        {
          "indexed": true,
          "internalType": "address",
          "name": "user",
          "type": "address"
        },
        {
          "indexed": false,
          "internalType": "uint256",
          "name": "amount",
          "type": "uint256"
        }
      ],
      "name": "TokensDeposited",
      "type": "event"
    },
    {
      "anonymous": false,
      "inputs": [
        {
          "indexed": true,
          "internalType": "address",
          "name": "user",
          "type": "address"
        },
        {
          "indexed": false,
          "internalType": "uint256",
          "name": "amount",
          "type": "uint256"
        }
      ],
      "name": "TokensWithdrawn",
      "type": "event"
    },
    {
      "anonymous": false,
      "inputs": [
        {
          "indexed": true,
          "internalType": "address",
          "name": "user",
          "type": "address"
        }
      ],
      "name": "UserBlocked",
      "type": "event"
    },
    {
      "anonymous": false,
      "inputs": [
        {
          "indexed": true,
          "internalType": "address",
          "name": "user",
          "type": "address"
        },
        {
          "indexed": false,
          "internalType": "string",
          "name": "email",
          "type": "string"
        },
        {
          "indexed": false,
          "internalType": "bool",
          "name": "isStaff",
          "type": "bool"
        }
      ],
      "name": "UserRegistered",
      "type": "event"
    },
    {
      "anonymous": false,
      "inputs": [
        {
          "indexed": true,
          "internalType": "address",
          "name": "user",
          "type": "address"
        }
      ],
      "name": "UserUnblocked",
      "type": "event"
    },
    {
      "inputs": [],
      "name": "CHECK_IN",
      "outputs": [
        {
          "internalType": "uint256",
          "name": "",
          "type": "uint256"
        }
      ],
      "stateMutability": "view",
      "type": "function"
    },
    {
      "inputs": [],
      "name": "MAX_SLOTS",
      "outputs": [
        {
          "internalType": "uint256",
          "name": "",
          "type": "uint256"
        }
      ],
      "stateMutability": "view",
      "type": "function"
    },
    {
      "inputs": [],
      "name": "PENALTY_AMOUNT",
      "outputs": [
        {
          "internalType": "uint256",
          "name": "",
          "type": "uint256"
        }
      ],
      "stateMutability": "view",
      "type": "function"
    },
    {
      "inputs": [],
      "name": "SLOT_PRICE",
      "outputs": [
        {
          "internalType": "uint256",
          "name": "",
          "type": "uint256"
        }
      ],
      "stateMutability": "view",
      "type": "function"
    },
    {
      "inputs": [
        {
          "internalType": "string",
          "name": "roomId",
          "type": "string"
        },
        {
          "internalType": "uint8",
          "name": "slot",
          "type": "uint8"
        },
        {
          "internalType": "uint256",
          "name": "time",
          "type": "uint256"
        }
      ],
      "name": "book",
      "outputs": [],
      "stateMutability": "nonpayable",
      "type": "function"
    },
    {
      "inputs": [
        {
          "internalType": "bytes32",
          "name": "",
          "type": "bytes32"
        }
      ],
      "name": "bookings",
      "outputs": [
        {
          "internalType": "string",
          "name": "roomId",
          "type": "string"
        },
        {
          "internalType": "uint8",
          "name": "slot",
          "type": "uint8"
        },
        {
          "internalType": "address",
          "name": "user",
          "type": "address"
        },
        {
          "internalType": "uint256",
          "name": "price",
          "type": "uint256"
        },
        {
          "internalType": "uint256",
          "name": "time",
          "type": "uint256"
        },
        {
          "internalType": "bool",
          "name": "checkedIn",
          "type": "bool"
        },
        {
          "internalType": "bool",
          "name": "cancelled",
          "type": "bool"
        }
      ],
      "stateMutability": "view",
      "type": "function"
    },
    {
      "inputs": [
        {
          "internalType": "bytes32",
          "name": "bookingId",
          "type": "bytes32"
        }
      ],
      "name": "cancelBooking",
      "outputs": [],
      "stateMutability": "nonpayable",
      "type": "function"
    },
    {
      "inputs": [
        {
          "internalType": "bytes32",
          "name": "bookingId",
          "type": "bytes32"
        }
      ],
      "name": "checkIn",
      "outputs": [],
      "stateMutability": "nonpayable",
      "type": "function"
    },
    {
      "inputs": [
        {
          "internalType": "uint256",
          "name": "amount",
          "type": "uint256"
        }
      ],
      "name": "depositTokens",
      "outputs": [],
      "stateMutability": "nonpayable",
      "type": "function"
    },
    {
      "inputs": [],
      "name": "fptToken",
      "outputs": [
        {
          "internalType": "contract FPTCurrency",
          "name": "",
          "type": "address"
        }
      ],
      "stateMutability": "view",
      "type": "function"
    },
    {
      "inputs": [
        {
          "internalType": "string",
          "name": "roomId",
          "type": "string"
        },
        {
          "internalType": "uint8",
          "name": "slot",
          "type": "uint8"
        },
        {
          "internalType": "uint256",
          "name": "time",
          "type": "uint256"
        }
      ],
      "name": "generateBookingId",
      "outputs": [
        {
          "internalType": "bytes32",
          "name": "",
          "type": "bytes32"
        }
      ],
      "stateMutability": "pure",
      "type": "function"
    },
    {
      "inputs": [
        {
          "internalType": "string",
          "name": "roomId",
          "type": "string"
        },
        {
          "internalType": "uint8",
          "name": "slot",
          "type": "uint8"
        },
        {
          "internalType": "uint256",
          "name": "date",
          "type": "uint256"
        }
      ],
      "name": "generateRoomSlotId",
      "outputs": [
        {
          "internalType": "bytes32",
          "name": "",
          "type": "bytes32"
        }
      ],
      "stateMutability": "pure",
      "type": "function"
    },
    {
      "inputs": [],
      "name": "owner",
      "outputs": [
        {
          "internalType": "address",
          "name": "",
          "type": "address"
        }
      ],
      "stateMutability": "view",
      "type": "function"
    },
    {
      "inputs": [],
      "name": "reactivateAccount",
      "outputs": [],
      "stateMutability": "nonpayable",
      "type": "function"
    },
    {
      "inputs": [
        {
          "internalType": "address",
          "name": "userAddress",
          "type": "address"
        },
        {
          "internalType": "string",
          "name": "email",
          "type": "string"
        },
        {
          "internalType": "bool",
          "name": "isStaff",
          "type": "bool"
        }
      ],
      "name": "registerUser",
      "outputs": [],
      "stateMutability": "nonpayable",
      "type": "function"
    },
    {
      "inputs": [],
      "name": "renounceOwnership",
      "outputs": [],
      "stateMutability": "nonpayable",
      "type": "function"
    },
    {
      "inputs": [
        {
          "internalType": "bytes32",
          "name": "",
          "type": "bytes32"
        }
      ],
      "name": "roomSlotBooked",
      "outputs": [
        {
          "internalType": "bool",
          "name": "",
          "type": "bool"
        }
      ],
      "stateMutability": "view",
      "type": "function"
    },
    {
      "inputs": [
        {
          "internalType": "address",
          "name": "newOwner",
          "type": "address"
        }
      ],
      "name": "transferOwnership",
      "outputs": [],
      "stateMutability": "nonpayable",
      "type": "function"
    },
    {
      "inputs": [
        {
          "internalType": "address",
          "name": "",
          "type": "address"
        }
      ],
      "name": "users",
      "outputs": [
        {
          "internalType": "bool",
          "name": "isRegistered",
          "type": "bool"
        },
        {
          "internalType": "bool",
          "name": "isStaff",
          "type": "bool"
        },
        {
          "internalType": "uint256",
          "name": "consecutiveCancellations",
          "type": "uint256"
        },
        {
          "internalType": "uint256",
          "name": "blockEndTime",
          "type": "uint256"
        },
        {
          "internalType": "string",
          "name": "email",
          "type": "string"
        }
      ],
      "stateMutability": "view",
      "type": "function"
    },
    {
      "inputs": [
        {
          "internalType": "uint256",
          "name": "amount",
          "type": "uint256"
        }
      ],
      "name": "withdrawTokens",
      "outputs": [],
      "stateMutability": "nonpayable",
      "type": "function"
    }
  ],
  "bytecode": "0x60806040523480156200001157600080fd5b5060405162003916380380620039168339818101604052810190620000379190620001dc565b620000576200004b620000a660201b60201c565b620000ae60201b60201c565b6001808190555080600260006101000a81548173ffffffffffffffffffffffffffffffffffffffff021916908373ffffffffffffffffffffffffffffffffffffffff160217905550506200020e565b600033905090565b60008060009054906101000a900473ffffffffffffffffffffffffffffffffffffffff169050816000806101000a81548173ffffffffffffffffffffffffffffffffffffffff021916908373ffffffffffffffffffffffffffffffffffffffff1602179055508173ffffffffffffffffffffffffffffffffffffffff168173ffffffffffffffffffffffffffffffffffffffff167f8be0079c531659141344cd1fd0a4f28419497f9722a3daafe3b4186f6b6457e060405160405180910390a35050565b600080fd5b600073ffffffffffffffffffffffffffffffffffffffff82169050919050565b6000620001a48262000177565b9050919050565b620001b68162000197565b8114620001c257600080fd5b50565b600081519050620001d681620001ab565b92915050565b600060208284031215620001f557620001f462000172565b5b60006200020584828501620001c5565b91505092915050565b6136f8806200021e6000396000f3fe608060405234801561001057600080fd5b506004361061012c5760003560e01c80637aa7ae9a116100ad578063b8ac250211610071578063b8ac2502146102fb578063bbacc1871461032b578063c0f3f2e914610361578063dd49756e1461037f578063f2fde38b1461039b5761012c565b80637aa7ae9a1461023f5780637e1d16711461026f5780638da5cb5b1461028d5780638f676732146102ab578063a87430ba146102c75761012c565b80634662d1dd116100f45780634662d1dd146101c157806354a10b07146101dd5780635bbf11b21461020d5780635cec72a414610217578063715018a6146102355761012c565b80630ac1618b14610131578063117b04b01461014d57806316596d7f1461016b578063315a095d146101875780633ffd65cc146101a3575b600080fd5b61014b60048036038101906101469190611fe7565b6103b7565b005b610155610888565b604051610162919061202d565b60405180910390f35b61018560048036038101906101809190612224565b61088e565b005b6101a1600480360381019061019c91906122bf565b610b19565b005b6101ab610d2b565b6040516101b8919061202d565b60405180910390f35b6101db60048036038101906101d69190611fe7565b610d37565b005b6101f760048036038101906101f29190612325565b610ffd565b60405161020491906123a3565b60405180910390f35b610215611033565b005b61021f6112f4565b60405161022c919061202d565b60405180910390f35b61023d611300565b005b61025960048036038101906102549190612325565b611314565b60405161026691906123a3565b60405180910390f35b61027761134a565b604051610284919061241d565b60405180910390f35b610295611370565b6040516102a29190612447565b60405180910390f35b6102c560048036038101906102c09190612325565b611399565b005b6102e160048036038101906102dc9190612462565b611956565b6040516102f295949392919061251d565b60405180910390f35b61031560048036038101906103109190611fe7565b611a2e565b6040516103229190612577565b60405180910390f35b61034560048036038101906103409190611fe7565b611a4e565b60405161035897969594939291906125a1565b60405180910390f35b610369611b5f565b604051610376919061202d565b60405180910390f35b610399600480360381019061039491906122bf565b611b64565b005b6103b560048036038101906103b09190612462565b611d78565b005b6103bf611dfb565b60006004600083815260200190815260200160002090503373ffffffffffffffffffffffffffffffffffffffff168160010160019054906101000a900473ffffffffffffffffffffffffffffffffffffffff1673ffffffffffffffffffffffffffffffffffffffff1614610468576040517f08c379a000000000000000000000000000000000000000000000000000000000815260040161045f90612663565b60405180910390fd5b8060040160019054906101000a900460ff16156104ba576040517f08c379a00000000000000000000000000000000000000000000000000000000081526004016104b1906126cf565b60405180910390fd5b8060040160009054906101000a900460ff161561050c576040517f08c379a00000000000000000000000000000000000000000000000000000000081526004016105039061273b565b60405180910390fd5b42816003015411610552576040517f08c379a0000000000000000000000000000000000000000000000000000000008152600401610549906127a7565b60405180910390fd5b60008042836003015461056591906127f6565b9050610e10811061057c578260020154915061059a565b610708811061059957600283600201546105969190612859565b91505b5b60018360040160016101000a81548160ff02191690831515021790555060006106658460000180546105cb906128b9565b80601f01602080910402602001604051908101604052809291908181526020018280546105f7906128b9565b80156106445780601f1061061957610100808354040283529160200191610644565b820191906000526020600020905b81548152906001019060200180831161062757829003601f168201915b50505050508560010160009054906101000a900460ff168660030154611314565b905060006005600083815260200190815260200160002060006101000a81548160ff021916908315150217905550600083111561077c57600260009054906101000a900473ffffffffffffffffffffffffffffffffffffffff1673ffffffffffffffffffffffffffffffffffffffff1663a9059cbb33856040518363ffffffff1660e01b81526004016106f99291906128ea565b6020604051808303816000875af1158015610718573d6000803e3d6000fd5b505050506040513d601f19601f8201168201806040525081019061073c9190612928565b61077b576040517f08c379a0000000000000000000000000000000000000000000000000000000008152600401610772906129a1565b60405180910390fd5b5b6000600360003373ffffffffffffffffffffffffffffffffffffffff1673ffffffffffffffffffffffffffffffffffffffff16815260200190815260200160002090508060010160008154809291906107d4906129c1565b919050555060038160010154106108405762093a80426107f49190612a09565b81600201819055503373ffffffffffffffffffffffffffffffffffffffff167fca86d8c91ca6d00afd863578cc633a0901fad724592f89649629fe65f61410d260405160405180910390a25b857f778a70b827c338f34086301d3eacff677d22a50a6f50ed2feadb4ed8e2e481ff85604051610870919061202d565b60405180910390a25050505050610885611e4a565b50565b61038481565b610896611370565b73ffffffffffffffffffffffffffffffffffffffff163373ffffffffffffffffffffffffffffffffffffffff16148061091b5750600360003373ffffffffffffffffffffffffffffffffffffffff1673ffffffffffffffffffffffffffffffffffffffff16815260200190815260200160002060000160019054906101000a900460ff165b61095a576040517f08c379a000000000000000000000000000000000000000000000000000000000815260040161095190612aaf565b60405180910390fd5b600360008473ffffffffffffffffffffffffffffffffffffffff1673ffffffffffffffffffffffffffffffffffffffff16815260200190815260200160002060000160009054906101000a900460ff16156109ea576040517f08c379a00000000000000000000000000000000000000000000000000000000081526004016109e190612b1b565b60405180910390fd5b6040518060a001604052806001151581526020018215158152602001600081526020016000815260200183815250600360008573ffffffffffffffffffffffffffffffffffffffff1673ffffffffffffffffffffffffffffffffffffffff16815260200190815260200160002060008201518160000160006101000a81548160ff02191690831515021790555060208201518160000160016101000a81548160ff02191690831515021790555060408201518160010155606082015181600201556080820151816003019081610ac09190612cdd565b509050508273ffffffffffffffffffffffffffffffffffffffff167f0b2d2fe99b0620e0994de6f522eb19dcc5b5fd39b27be67cea0547c4ed9dbdfc8383604051610b0c929190612daf565b60405180910390a2505050565b600360003373ffffffffffffffffffffffffffffffffffffffff1673ffffffffffffffffffffffffffffffffffffffff16815260200190815260200160002060000160009054906101000a900460ff16610ba8576040517f08c379a0000000000000000000000000000000000000000000000000000000008152600401610b9f90612e2b565b60405180910390fd5b610bb0611dfb565b60008111610bf3576040517f08c379a0000000000000000000000000000000000000000000000000000000008152600401610bea90612e97565b60405180910390fd5b600260009054906101000a900473ffffffffffffffffffffffffffffffffffffffff1673ffffffffffffffffffffffffffffffffffffffff1663a9059cbb33836040518363ffffffff1660e01b8152600401610c509291906128ea565b6020604051808303816000875af1158015610c6f573d6000803e3d6000fd5b505050506040513d601f19601f82011682018060405250810190610c939190612928565b610cd2576040517f08c379a0000000000000000000000000000000000000000000000000000000008152600401610cc990612f03565b60405180910390fd5b3373ffffffffffffffffffffffffffffffffffffffff167f6352c5382c4a4578e712449ca65e83cdb392d045dfcf1cad9615189db2da244b82604051610d18919061202d565b60405180910390a2610d28611e4a565b50565b678ac7230489e8000081565b600360003373ffffffffffffffffffffffffffffffffffffffff1673ffffffffffffffffffffffffffffffffffffffff16815260200190815260200160002060000160009054906101000a900460ff16610dc6576040517f08c379a0000000000000000000000000000000000000000000000000000000008152600401610dbd90612e2b565b60405180910390fd5b60006004600083815260200190815260200160002090503373ffffffffffffffffffffffffffffffffffffffff168160010160019054906101000a900473ffffffffffffffffffffffffffffffffffffffff1673ffffffffffffffffffffffffffffffffffffffff1614610e6f576040517f08c379a0000000000000000000000000000000000000000000000000000000008152600401610e6690612663565b60405180910390fd5b8060040160019054906101000a900460ff1615610ec1576040517f08c379a0000000000000000000000000000000000000000000000000000000008152600401610eb890612f6f565b60405180910390fd5b8060040160009054906101000a900460ff1615610f13576040517f08c379a0000000000000000000000000000000000000000000000000000000008152600401610f0a9061273b565b60405180910390fd5b6103848160030154610f259190612a09565b421115610f67576040517f08c379a0000000000000000000000000000000000000000000000000000000008152600401610f5e90612fdb565b60405180910390fd5b60018160040160006101000a81548160ff0219169083151502179055506000600360003373ffffffffffffffffffffffffffffffffffffffff1673ffffffffffffffffffffffffffffffffffffffff16815260200190815260200160002060010181905550817fef1dfb221c790d33cde4e3fb4e6a5cd1d475e34eb73ae116df13301fb40b016c60405160405180910390a25050565b60008383836040516020016110149392919061308e565b6040516020818303038152906040528051906020012090509392505050565b61103b611dfb565b6000600360003373ffffffffffffffffffffffffffffffffffffffff1673ffffffffffffffffffffffffffffffffffffffff1681526020019081526020016000209050428160020154116110c4576040517f08c379a00000000000000000000000000000000000000000000000000000000081526004016110bb90613113565b60405180910390fd5b678ac7230489e80000600260009054906101000a900473ffffffffffffffffffffffffffffffffffffffff1673ffffffffffffffffffffffffffffffffffffffff166370a08231336040518263ffffffff1660e01b81526004016111289190612447565b602060405180830381865afa158015611145573d6000803e3d6000fd5b505050506040513d601f19601f820116820180604052508101906111699190613148565b10156111aa576040517f08c379a00000000000000000000000000000000000000000000000000000000081526004016111a1906131c1565b60405180910390fd5b600260009054906101000a900473ffffffffffffffffffffffffffffffffffffffff1673ffffffffffffffffffffffffffffffffffffffff166323b872dd3330678ac7230489e800006040518463ffffffff1660e01b8152600401611211939291906131e1565b6020604051808303816000875af1158015611230573d6000803e3d6000fd5b505050506040513d601f19601f820116820180604052508101906112549190612928565b611293576040517f08c379a000000000000000000000000000000000000000000000000000000000815260040161128a90613264565b60405180910390fd5b428160020181905550600081600101819055503373ffffffffffffffffffffffffffffffffffffffff167f798117ec059ab8d319461ef2502b1f9d8a47cd966bfd1f3e23b6f26c30bebb7760405160405180910390a2506112f2611e4a565b565b674563918244f4000081565b611308611e53565b6113126000611ed1565b565b600083838360405160200161132b9392919061308e565b6040516020818303038152906040528051906020012090509392505050565b600260009054906101000a900473ffffffffffffffffffffffffffffffffffffffff1681565b60008060009054906101000a900473ffffffffffffffffffffffffffffffffffffffff16905090565b600360003373ffffffffffffffffffffffffffffffffffffffff1673ffffffffffffffffffffffffffffffffffffffff16815260200190815260200160002060000160009054906101000a900460ff16611428576040517f08c379a000000000000000000000000000000000000000000000000000000000815260040161141f90612e2b565b60405180910390fd5b600360003373ffffffffffffffffffffffffffffffffffffffff1673ffffffffffffffffffffffffffffffffffffffff168152602001908152602001600020600201544210156114ad576040517f08c379a00000000000000000000000000000000000000000000000000000000081526004016114a4906132d0565b60405180910390fd5b6114b5611dfb565b60008260ff161180156114cc575060058260ff1611155b61150b576040517f08c379a00000000000000000000000000000000000000000000000000000000081526004016115029061333c565b60405180910390fd5b42811161154d576040517f08c379a0000000000000000000000000000000000000000000000000000000008152600401611544906133a8565b60405180910390fd5b600061155a848484610ffd565b90506000611569858585611314565b90506005600082815260200190815260200160002060009054906101000a900460ff16156115cc576040517f08c379a00000000000000000000000000000000000000000000000000000000081526004016115c390613414565b60405180910390fd5b674563918244f40000600260009054906101000a900473ffffffffffffffffffffffffffffffffffffffff1673ffffffffffffffffffffffffffffffffffffffff166370a08231336040518263ffffffff1660e01b81526004016116309190612447565b602060405180830381865afa15801561164d573d6000803e3d6000fd5b505050506040513d601f19601f820116820180604052508101906116719190613148565b10156116b2576040517f08c379a00000000000000000000000000000000000000000000000000000000081526004016116a990613480565b60405180910390fd5b600260009054906101000a900473ffffffffffffffffffffffffffffffffffffffff1673ffffffffffffffffffffffffffffffffffffffff166323b872dd3330674563918244f400006040518463ffffffff1660e01b8152600401611719939291906131e1565b6020604051808303816000875af1158015611738573d6000803e3d6000fd5b505050506040513d601f19601f8201168201806040525081019061175c9190612928565b61179b576040517f08c379a0000000000000000000000000000000000000000000000000000000008152600401611792906134ec565b60405180910390fd5b6040518060e001604052808681526020018560ff1681526020013373ffffffffffffffffffffffffffffffffffffffff168152602001674563918244f4000081526020018481526020016000151581526020016000151581525060046000848152602001908152602001600020600082015181600001908161181d9190612cdd565b5060208201518160010160006101000a81548160ff021916908360ff16021790555060408201518160010160016101000a81548173ffffffffffffffffffffffffffffffffffffffff021916908373ffffffffffffffffffffffffffffffffffffffff160217905550606082015181600201556080820151816003015560a08201518160040160006101000a81548160ff02191690831515021790555060c08201518160040160016101000a81548160ff02191690831515021790555090505060016005600083815260200190815260200160002060006101000a81548160ff021916908315150217905550817f5c8aa9c7795e3ca7d5bd125dff4d76b94c338ef29f2a75391be90f4ea0b559948686338760405161193f949392919061350c565b60405180910390a25050611951611e4a565b505050565b60036020528060005260406000206000915090508060000160009054906101000a900460ff16908060000160019054906101000a900460ff16908060010154908060020154908060030180546119ab906128b9565b80601f01602080910402602001604051908101604052809291908181526020018280546119d7906128b9565b8015611a245780601f106119f957610100808354040283529160200191611a24565b820191906000526020600020905b815481529060010190602001808311611a0757829003601f168201915b5050505050905085565b60056020528060005260406000206000915054906101000a900460ff1681565b6004602052806000526040600020600091509050806000018054611a71906128b9565b80601f0160208091040260200160405190810160405280929190818152602001828054611a9d906128b9565b8015611aea5780601f10611abf57610100808354040283529160200191611aea565b820191906000526020600020905b815481529060010190602001808311611acd57829003601f168201915b5050505050908060010160009054906101000a900460ff16908060010160019054906101000a900473ffffffffffffffffffffffffffffffffffffffff16908060020154908060030154908060040160009054906101000a900460ff16908060040160019054906101000a900460ff16905087565b600581565b600360003373ffffffffffffffffffffffffffffffffffffffff1673ffffffffffffffffffffffffffffffffffffffff16815260200190815260200160002060000160009054906101000a900460ff16611bf3576040517f08c379a0000000000000000000000000000000000000000000000000000000008152600401611bea90612e2b565b60405180910390fd5b611bfb611dfb565b60008111611c3e576040517f08c379a0000000000000000000000000000000000000000000000000000000008152600401611c3590612e97565b60405180910390fd5b600260009054906101000a900473ffffffffffffffffffffffffffffffffffffffff1673ffffffffffffffffffffffffffffffffffffffff166323b872dd3330846040518463ffffffff1660e01b8152600401611c9d939291906131e1565b6020604051808303816000875af1158015611cbc573d6000803e3d6000fd5b505050506040513d601f19601f82011682018060405250810190611ce09190612928565b611d1f576040517f08c379a0000000000000000000000000000000000000000000000000000000008152600401611d1690612f03565b60405180910390fd5b3373ffffffffffffffffffffffffffffffffffffffff167f59062170a285eb80e8c6b8ced60428442a51910635005233fc4ce084a475845e82604051611d65919061202d565b60405180910390a2611d75611e4a565b50565b611d80611e53565b600073ffffffffffffffffffffffffffffffffffffffff168173ffffffffffffffffffffffffffffffffffffffff1603611def576040517f08c379a0000000000000000000000000000000000000000000000000000000008152600401611de6906135ca565b60405180910390fd5b611df881611ed1565b50565b600260015403611e40576040517f08c379a0000000000000000000000000000000000000000000000000000000008152600401611e3790613636565b60405180910390fd5b6002600181905550565b60018081905550565b611e5b611f95565b73ffffffffffffffffffffffffffffffffffffffff16611e79611370565b73ffffffffffffffffffffffffffffffffffffffff1614611ecf576040517f08c379a0000000000000000000000000000000000000000000000000000000008152600401611ec6906136a2565b60405180910390fd5b565b60008060009054906101000a900473ffffffffffffffffffffffffffffffffffffffff169050816000806101000a81548173ffffffffffffffffffffffffffffffffffffffff021916908373ffffffffffffffffffffffffffffffffffffffff1602179055508173ffffffffffffffffffffffffffffffffffffffff168173ffffffffffffffffffffffffffffffffffffffff167f8be0079c531659141344cd1fd0a4f28419497f9722a3daafe3b4186f6b6457e060405160405180910390a35050565b600033905090565b6000604051905090565b600080fd5b600080fd5b6000819050919050565b611fc481611fb1565b8114611fcf57600080fd5b50565b600081359050611fe181611fbb565b92915050565b600060208284031215611ffd57611ffc611fa7565b5b600061200b84828501611fd2565b91505092915050565b6000819050919050565b61202781612014565b82525050565b6000602082019050612042600083018461201e565b92915050565b600073ffffffffffffffffffffffffffffffffffffffff82169050919050565b600061207382612048565b9050919050565b61208381612068565b811461208e57600080fd5b50565b6000813590506120a08161207a565b92915050565b600080fd5b600080fd5b6000601f19601f8301169050919050565b7f4e487b7100000000000000000000000000000000000000000000000000000000600052604160045260246000fd5b6120f9826120b0565b810181811067ffffffffffffffff82111715612118576121176120c1565b5b80604052505050565b600061212b611f9d565b905061213782826120f0565b919050565b600067ffffffffffffffff821115612157576121566120c1565b5b612160826120b0565b9050602081019050919050565b82818337600083830152505050565b600061218f61218a8461213c565b612121565b9050828152602081018484840111156121ab576121aa6120ab565b5b6121b684828561216d565b509392505050565b600082601f8301126121d3576121d26120a6565b5b81356121e384826020860161217c565b91505092915050565b60008115159050919050565b612201816121ec565b811461220c57600080fd5b50565b60008135905061221e816121f8565b92915050565b60008060006060848603121561223d5761223c611fa7565b5b600061224b86828701612091565b935050602084013567ffffffffffffffff81111561226c5761226b611fac565b5b612278868287016121be565b92505060406122898682870161220f565b9150509250925092565b61229c81612014565b81146122a757600080fd5b50565b6000813590506122b981612293565b92915050565b6000602082840312156122d5576122d4611fa7565b5b60006122e3848285016122aa565b91505092915050565b600060ff82169050919050565b612302816122ec565b811461230d57600080fd5b50565b60008135905061231f816122f9565b92915050565b60008060006060848603121561233e5761233d611fa7565b5b600084013567ffffffffffffffff81111561235c5761235b611fac565b5b612368868287016121be565b935050602061237986828701612310565b925050604061238a868287016122aa565b9150509250925092565b61239d81611fb1565b82525050565b60006020820190506123b86000830184612394565b92915050565b6000819050919050565b60006123e36123de6123d984612048565b6123be565b612048565b9050919050565b60006123f5826123c8565b9050919050565b6000612407826123ea565b9050919050565b612417816123fc565b82525050565b6000602082019050612432600083018461240e565b92915050565b61244181612068565b82525050565b600060208201905061245c6000830184612438565b92915050565b60006020828403121561247857612477611fa7565b5b600061248684828501612091565b91505092915050565b612498816121ec565b82525050565b600081519050919050565b600082825260208201905092915050565b60005b838110156124d85780820151818401526020810190506124bd565b60008484015250505050565b60006124ef8261249e565b6124f981856124a9565b93506125098185602086016124ba565b612512816120b0565b840191505092915050565b600060a082019050612532600083018861248f565b61253f602083018761248f565b61254c604083018661201e565b612559606083018561201e565b818103608083015261256b81846124e4565b90509695505050505050565b600060208201905061258c600083018461248f565b92915050565b61259b816122ec565b82525050565b600060e08201905081810360008301526125bb818a6124e4565b90506125ca6020830189612592565b6125d76040830188612438565b6125e4606083018761201e565b6125f1608083018661201e565b6125fe60a083018561248f565b61260b60c083018461248f565b98975050505050505050565b7f4e6f742074686520626f6f6b696e67206f776e65720000000000000000000000600082015250565b600061264d6015836124a9565b915061265882612617565b602082019050919050565b6000602082019050818103600083015261267c81612640565b9050919050565b7f426f6f6b696e6720616c72656164792063616e63656c6c656400000000000000600082015250565b60006126b96019836124a9565b91506126c482612683565b602082019050919050565b600060208201905081810360008301526126e8816126ac565b9050919050565b7f416c726561647920636865636b656420696e0000000000000000000000000000600082015250565b60006127256012836124a9565b9150612730826126ef565b602082019050919050565b6000602082019050818103600083015261275481612718565b9050919050565b7f426f6f6b696e672074696d652070617373656400000000000000000000000000600082015250565b60006127916013836124a9565b915061279c8261275b565b602082019050919050565b600060208201905081810360008301526127c081612784565b9050919050565b7f4e487b7100000000000000000000000000000000000000000000000000000000600052601160045260246000fd5b600061280182612014565b915061280c83612014565b9250828203905081811115612824576128236127c7565b5b92915050565b7f4e487b7100000000000000000000000000000000000000000000000000000000600052601260045260246000fd5b600061286482612014565b915061286f83612014565b92508261287f5761287e61282a565b5b828204905092915050565b7f4e487b7100000000000000000000000000000000000000000000000000000000600052602260045260246000fd5b600060028204905060018216806128d157607f821691505b6020821081036128e4576128e361288a565b5b50919050565b60006040820190506128ff6000830185612438565b61290c602083018461201e565b9392505050565b600081519050612922816121f8565b92915050565b60006020828403121561293e5761293d611fa7565b5b600061294c84828501612913565b91505092915050565b7f526566756e64206661696c656400000000000000000000000000000000000000600082015250565b600061298b600d836124a9565b915061299682612955565b602082019050919050565b600060208201905081810360008301526129ba8161297e565b9050919050565b60006129cc82612014565b91507fffffffffffffffffffffffffffffffffffffffffffffffffffffffffffffffff82036129fe576129fd6127c7565b5b600182019050919050565b6000612a1482612014565b9150612a1f83612014565b9250828201905080821115612a3757612a366127c7565b5b92915050565b7f4f6e6c792073746166662063616e20706572666f726d2074686973206163746960008201527f6f6e000000000000000000000000000000000000000000000000000000000000602082015250565b6000612a996022836124a9565b9150612aa482612a3d565b604082019050919050565b60006020820190508181036000830152612ac881612a8c565b9050919050565b7f5573657220616c72656164792072656769737465726564000000000000000000600082015250565b6000612b056017836124a9565b9150612b1082612acf565b602082019050919050565b60006020820190508181036000830152612b3481612af8565b9050919050565b60008190508160005260206000209050919050565b60006020601f8301049050919050565b600082821b905092915050565b600060088302612b9d7fffffffffffffffffffffffffffffffffffffffffffffffffffffffffffffffff82612b60565b612ba78683612b60565b95508019841693508086168417925050509392505050565b6000612bda612bd5612bd084612014565b6123be565b612014565b9050919050565b6000819050919050565b612bf483612bbf565b612c08612c0082612be1565b848454612b6d565b825550505050565b600090565b612c1d612c10565b612c28818484612beb565b505050565b5b81811015612c4c57612c41600082612c15565b600181019050612c2e565b5050565b601f821115612c9157612c6281612b3b565b612c6b84612b50565b81016020851015612c7a578190505b612c8e612c8685612b50565b830182612c2d565b50505b505050565b600082821c905092915050565b6000612cb460001984600802612c96565b1980831691505092915050565b6000612ccd8383612ca3565b9150826002028217905092915050565b612ce68261249e565b67ffffffffffffffff811115612cff57612cfe6120c1565b5b612d0982546128b9565b612d14828285612c50565b600060209050601f831160018114612d475760008415612d35578287015190505b612d3f8582612cc1565b865550612da7565b601f198416612d5586612b3b565b60005b82811015612d7d57848901518255600182019150602085019450602081019050612d58565b86831015612d9a5784890151612d96601f891682612ca3565b8355505b6001600288020188555050505b505050505050565b60006040820190508181036000830152612dc981856124e4565b9050612dd8602083018461248f565b9392505050565b7f55736572206e6f74207265676973746572656400000000000000000000000000600082015250565b6000612e156013836124a9565b9150612e2082612ddf565b602082019050919050565b60006020820190508181036000830152612e4481612e08565b9050919050565b7f416d6f756e74206d7573742062652067726561746572207468616e2030000000600082015250565b6000612e81601d836124a9565b9150612e8c82612e4b565b602082019050919050565b60006020820190508181036000830152612eb081612e74565b9050919050565b7f5472616e73666572206661696c65640000000000000000000000000000000000600082015250565b6000612eed600f836124a9565b9150612ef882612eb7565b602082019050919050565b60006020820190508181036000830152612f1c81612ee0565b9050919050565b7f426f6f6b696e672063616e63656c6c6564000000000000000000000000000000600082015250565b6000612f596011836124a9565b9150612f6482612f23565b602082019050919050565b60006020820190508181036000830152612f8881612f4c565b9050919050565b7f436865636b2d696e2077696e646f772070617373656400000000000000000000600082015250565b6000612fc56016836124a9565b9150612fd082612f8f565b602082019050919050565b60006020820190508181036000830152612ff481612fb8565b9050919050565b600081905092915050565b60006130118261249e565b61301b8185612ffb565b935061302b8185602086016124ba565b80840191505092915050565b60008160f81b9050919050565b600061304f82613037565b9050919050565b613067613062826122ec565b613044565b82525050565b6000819050919050565b61308861308382612014565b61306d565b82525050565b600061309a8286613006565b91506130a68285613056565b6001820191506130b68284613077565b602082019150819050949350505050565b7f4163636f756e74206e6f7420626c6f636b656400000000000000000000000000600082015250565b60006130fd6013836124a9565b9150613108826130c7565b602082019050919050565b6000602082019050818103600083015261312c816130f0565b9050919050565b60008151905061314281612293565b92915050565b60006020828403121561315e5761315d611fa7565b5b600061316c84828501613133565b91505092915050565b7f496e73756666696369656e742070656e616c747920616d6f756e740000000000600082015250565b60006131ab601b836124a9565b91506131b682613175565b602082019050919050565b600060208201905081810360008301526131da8161319e565b9050919050565b60006060820190506131f66000830186612438565b6132036020830185612438565b613210604083018461201e565b949350505050565b7f50656e616c7479207061796d656e74206661696c656400000000000000000000600082015250565b600061324e6016836124a9565b915061325982613218565b602082019050919050565b6000602082019050818103600083015261327d81613241565b9050919050565b7f5573657220697320626c6f636b65640000000000000000000000000000000000600082015250565b60006132ba600f836124a9565b91506132c582613284565b602082019050919050565b600060208201905081810360008301526132e9816132ad565b9050919050565b7f496e76616c696420736c6f74206e756d62657200000000000000000000000000600082015250565b60006133266013836124a9565b9150613331826132f0565b602082019050919050565b6000602082019050818103600083015261335581613319565b9050919050565b7f43616e6e6f7420626f6f6b20696e207468652070617374000000000000000000600082015250565b60006133926017836124a9565b915061339d8261335c565b602082019050919050565b600060208201905081810360008301526133c181613385565b9050919050565b7f536c6f7420616c726561647920626f6f6b656400000000000000000000000000600082015250565b60006133fe6013836124a9565b9150613409826133c8565b602082019050919050565b6000602082019050818103600083015261342d816133f1565b9050919050565b7f496e73756666696369656e74204650542062616c616e63650000000000000000600082015250565b600061346a6018836124a9565b915061347582613434565b602082019050919050565b600060208201905081810360008301526134998161345d565b9050919050565b7f546f6b656e207472616e73666572206661696c65640000000000000000000000600082015250565b60006134d66015836124a9565b91506134e1826134a0565b602082019050919050565b60006020820190508181036000830152613505816134c9565b9050919050565b6000608082019050818103600083015261352681876124e4565b90506135356020830186612592565b6135426040830185612438565b61354f606083018461201e565b95945050505050565b7f4f776e61626c653a206e6577206f776e657220697320746865207a65726f206160008201527f6464726573730000000000000000000000000000000000000000000000000000602082015250565b60006135b46026836124a9565b91506135bf82613558565b604082019050919050565b600060208201905081810360008301526135e3816135a7565b9050919050565b7f5265656e7472616e637947756172643a207265656e7472616e742063616c6c00600082015250565b6000613620601f836124a9565b915061362b826135ea565b602082019050919050565b6000602082019050818103600083015261364f81613613565b9050919050565b7f4f776e61626c653a2063616c6c6572206973206e6f7420746865206f776e6572600082015250565b600061368c6020836124a9565b915061369782613656565b602082019050919050565b600060208201905081810360008301526136bb8161367f565b905091905056fea2646970667358221220f486507ba253a443e7e400a7db110b5d0bef9490e3953db6e3f495508a774ca064736f6c63430008180033",
  "linkReferences": {},
  "deployedLinkReferences": {}
}